{
  "_format": "hh-sol-artifact-1",
  "contractName": "VOREvent",
  "sourceName": "contracts/VOREvent.sol",
  "abi": [
    {
      "inputs": [
        {
          "internalType": "string",
          "name": "_name",
          "type": "string"
        },
        {
          "internalType": "string",
          "name": "_description",
          "type": "string"
        },
        {
          "internalType": "address",
          "name": "_issuer",
          "type": "address"
        }
      ],
      "stateMutability": "nonpayable",
      "type": "constructor"
    },
    {
      "anonymous": false,
      "inputs": [
        {
          "indexed": true,
          "internalType": "address",
          "name": "owner",
          "type": "address"
        },
        {
          "indexed": true,
          "internalType": "address",
          "name": "approved",
          "type": "address"
        },
        {
          "indexed": true,
          "internalType": "uint256",
          "name": "tokenId",
          "type": "uint256"
        }
      ],
      "name": "Approval",
      "type": "event"
    },
    {
      "anonymous": false,
      "inputs": [
        {
          "indexed": true,
          "internalType": "address",
          "name": "owner",
          "type": "address"
        },
        {
          "indexed": true,
          "internalType": "address",
          "name": "operator",
          "type": "address"
        },
        {
          "indexed": false,
          "internalType": "bool",
          "name": "approved",
          "type": "bool"
        }
      ],
      "name": "ApprovalForAll",
      "type": "event"
    },
    {
      "anonymous": false,
      "inputs": [
        {
          "indexed": true,
          "internalType": "address",
          "name": "from",
          "type": "address"
        },
        {
          "indexed": true,
          "internalType": "address",
          "name": "to",
          "type": "address"
        },
        {
          "indexed": true,
          "internalType": "uint256",
          "name": "tokenId",
          "type": "uint256"
        }
      ],
      "name": "Transfer",
      "type": "event"
    },
    {
      "inputs": [
        {
          "internalType": "uint256",
          "name": "_tokenId",
          "type": "uint256"
        }
      ],
      "name": "accept",
      "outputs": [],
      "stateMutability": "nonpayable",
      "type": "function"
    },
    {
      "inputs": [
        {
          "internalType": "string[]",
          "name": "_names",
          "type": "string[]"
        },
        {
          "internalType": "string[]",
          "name": "_descriptions",
          "type": "string[]"
        },
        {
          "internalType": "uint256[]",
          "name": "_groups",
          "type": "uint256[]"
        },
        {
          "internalType": "string[]",
          "name": "_cids",
          "type": "string[]"
        }
      ],
      "name": "addBadges",
      "outputs": [],
      "stateMutability": "nonpayable",
      "type": "function"
    },
    {
      "inputs": [
        {
          "internalType": "address",
          "name": "to",
          "type": "address"
        },
        {
          "internalType": "uint256",
          "name": "tokenId",
          "type": "uint256"
        }
      ],
      "name": "approve",
      "outputs": [],
      "stateMutability": "nonpayable",
      "type": "function"
    },
    {
      "inputs": [
        {
          "internalType": "address",
          "name": "_to",
          "type": "address"
        },
        {
          "internalType": "uint256",
          "name": "_tokenId",
          "type": "uint256"
        }
      ],
      "name": "award",
      "outputs": [],
      "stateMutability": "nonpayable",
      "type": "function"
    },
    {
      "inputs": [
        {
          "internalType": "address",
          "name": "owner",
          "type": "address"
        }
      ],
      "name": "balanceOf",
      "outputs": [
        {
          "internalType": "uint256",
          "name": "",
          "type": "uint256"
        }
      ],
      "stateMutability": "view",
      "type": "function"
    },
    {
      "inputs": [
        {
          "internalType": "uint256",
          "name": "_tokenId",
          "type": "uint256"
        }
      ],
      "name": "burn",
      "outputs": [],
      "stateMutability": "nonpayable",
      "type": "function"
    },
    {
      "inputs": [],
      "name": "description",
      "outputs": [
        {
          "internalType": "string",
          "name": "",
          "type": "string"
        }
      ],
      "stateMutability": "view",
      "type": "function"
    },
    {
      "inputs": [
        {
          "internalType": "uint256",
          "name": "tokenId",
          "type": "uint256"
        }
      ],
      "name": "getApproved",
      "outputs": [
        {
          "internalType": "address",
          "name": "",
          "type": "address"
        }
      ],
      "stateMutability": "view",
      "type": "function"
    },
    {
      "inputs": [],
      "name": "getBadges",
      "outputs": [
        {
          "components": [
            {
              "internalType": "enum VOREvent.BadgeState",
              "name": "state",
              "type": "uint8"
            },
            {
              "internalType": "address",
              "name": "recipient",
              "type": "address"
            },
            {
              "internalType": "string",
              "name": "name",
              "type": "string"
            },
            {
              "internalType": "string",
              "name": "description",
              "type": "string"
            },
            {
              "internalType": "uint256",
              "name": "group",
              "type": "uint256"
            },
            {
              "internalType": "string",
              "name": "cid",
              "type": "string"
            }
          ],
          "internalType": "struct VOREvent.Badge[]",
          "name": "",
          "type": "tuple[]"
        }
      ],
      "stateMutability": "view",
      "type": "function"
    },
    {
      "inputs": [
        {
          "internalType": "address",
          "name": "owner",
          "type": "address"
        },
        {
          "internalType": "address",
          "name": "operator",
          "type": "address"
        }
      ],
      "name": "isApprovedForAll",
      "outputs": [
        {
          "internalType": "bool",
          "name": "",
          "type": "bool"
        }
      ],
      "stateMutability": "view",
      "type": "function"
    },
    {
      "inputs": [],
      "name": "issuer",
      "outputs": [
        {
          "internalType": "address",
          "name": "",
          "type": "address"
        }
      ],
      "stateMutability": "view",
      "type": "function"
    },
    {
      "inputs": [],
      "name": "name",
      "outputs": [
        {
          "internalType": "string",
          "name": "",
          "type": "string"
        }
      ],
      "stateMutability": "view",
      "type": "function"
    },
    {
      "inputs": [
        {
          "internalType": "uint256",
          "name": "tokenId",
          "type": "uint256"
        }
      ],
      "name": "ownerOf",
      "outputs": [
        {
          "internalType": "address",
          "name": "",
          "type": "address"
        }
      ],
      "stateMutability": "view",
      "type": "function"
    },
    {
      "inputs": [
        {
          "internalType": "uint256",
          "name": "_tokenId",
          "type": "uint256"
        }
      ],
      "name": "reject",
      "outputs": [],
      "stateMutability": "nonpayable",
      "type": "function"
    },
    {
      "inputs": [
        {
          "internalType": "uint256[]",
          "name": "_tokenIds",
          "type": "uint256[]"
        }
      ],
      "name": "removeBadges",
      "outputs": [],
      "stateMutability": "nonpayable",
      "type": "function"
    },
    {
      "inputs": [
        {
          "internalType": "address",
          "name": "from",
          "type": "address"
        },
        {
          "internalType": "address",
          "name": "to",
          "type": "address"
        },
        {
          "internalType": "uint256",
          "name": "tokenId",
          "type": "uint256"
        }
      ],
      "name": "safeTransferFrom",
      "outputs": [],
      "stateMutability": "nonpayable",
      "type": "function"
    },
    {
      "inputs": [
        {
          "internalType": "address",
          "name": "from",
          "type": "address"
        },
        {
          "internalType": "address",
          "name": "to",
          "type": "address"
        },
        {
          "internalType": "uint256",
          "name": "tokenId",
          "type": "uint256"
        },
        {
          "internalType": "bytes",
          "name": "data",
          "type": "bytes"
        }
      ],
      "name": "safeTransferFrom",
      "outputs": [],
      "stateMutability": "nonpayable",
      "type": "function"
    },
    {
      "inputs": [
        {
          "internalType": "address",
          "name": "operator",
          "type": "address"
        },
        {
          "internalType": "bool",
          "name": "approved",
          "type": "bool"
        }
      ],
      "name": "setApprovalForAll",
      "outputs": [],
      "stateMutability": "nonpayable",
      "type": "function"
    },
    {
      "inputs": [
        {
          "internalType": "bytes4",
          "name": "interfaceId",
          "type": "bytes4"
        }
      ],
      "name": "supportsInterface",
      "outputs": [
        {
          "internalType": "bool",
          "name": "",
          "type": "bool"
        }
      ],
      "stateMutability": "view",
      "type": "function"
    },
    {
      "inputs": [],
      "name": "symbol",
      "outputs": [
        {
          "internalType": "string",
          "name": "",
          "type": "string"
        }
      ],
      "stateMutability": "view",
      "type": "function"
    },
    {
      "inputs": [],
      "name": "tokenIdCounter",
      "outputs": [
        {
          "internalType": "uint256",
          "name": "",
          "type": "uint256"
        }
      ],
      "stateMutability": "view",
      "type": "function"
    },
    {
      "inputs": [
        {
          "internalType": "uint256",
          "name": "_tokenId",
          "type": "uint256"
        }
      ],
      "name": "tokenURI",
      "outputs": [
        {
          "internalType": "string",
          "name": "",
          "type": "string"
        }
      ],
      "stateMutability": "view",
      "type": "function"
    },
    {
      "inputs": [
        {
          "internalType": "address",
          "name": "from",
          "type": "address"
        },
        {
          "internalType": "address",
          "name": "to",
          "type": "address"
        },
        {
          "internalType": "uint256",
          "name": "tokenId",
          "type": "uint256"
        }
      ],
      "name": "transferFrom",
      "outputs": [],
      "stateMutability": "nonpayable",
      "type": "function"
    }
  ],
  "bytecode": "0x60806040523480156200001157600080fd5b5060405162004b4738038062004b47833981810160405281019062000037919062000252565b826040518060400160405280600481526020017f564f5242000000000000000000000000000000000000000000000000000000008152508160009080519060200190620000869291906200010d565b5080600190805190602001906200009f9291906200010d565b5050508160079080519060200190620000ba9291906200010d565b5080600860006101000a81548173ffffffffffffffffffffffffffffffffffffffff021916908373ffffffffffffffffffffffffffffffffffffffff1602179055506001600981905550505050620004be565b8280546200011b90620003b5565b90600052602060002090601f0160209004810192826200013f57600085556200018b565b82601f106200015a57805160ff19168380011785556200018b565b828001600101855582156200018b579182015b828111156200018a5782518255916020019190600101906200016d565b5b5090506200019a91906200019e565b5090565b5b80821115620001b95760008160009055506001016200019f565b5090565b6000620001d4620001ce8462000315565b620002ec565b905082815260208101848484011115620001f357620001f262000484565b5b620002008482856200037f565b509392505050565b6000815190506200021981620004a4565b92915050565b600082601f8301126200023757620002366200047f565b5b815162000249848260208601620001bd565b91505092915050565b6000806000606084860312156200026e576200026d6200048e565b5b600084015167ffffffffffffffff8111156200028f576200028e62000489565b5b6200029d868287016200021f565b935050602084015167ffffffffffffffff811115620002c157620002c062000489565b5b620002cf868287016200021f565b9250506040620002e28682870162000208565b9150509250925092565b6000620002f86200030b565b9050620003068282620003eb565b919050565b6000604051905090565b600067ffffffffffffffff82111562000333576200033262000450565b5b6200033e8262000493565b9050602081019050919050565b600062000358826200035f565b9050919050565b600073ffffffffffffffffffffffffffffffffffffffff82169050919050565b60005b838110156200039f57808201518184015260208101905062000382565b83811115620003af576000848401525b50505050565b60006002820490506001821680620003ce57607f821691505b60208210811415620003e557620003e462000421565b5b50919050565b620003f68262000493565b810181811067ffffffffffffffff8211171562000418576200041762000450565b5b80604052505050565b7f4e487b7100000000000000000000000000000000000000000000000000000000600052602260045260246000fd5b7f4e487b7100000000000000000000000000000000000000000000000000000000600052604160045260246000fd5b600080fd5b600080fd5b600080fd5b600080fd5b6000601f19601f8301169050919050565b620004af816200034b565b8114620004bb57600080fd5b50565b61467980620004ce6000396000f3fe608060405234801561001057600080fd5b506004361061014d5760003560e01c80634cb84830116100c357806398bdf6f51161007c57806398bdf6f514610388578063a22cb465146103a6578063b88d4fde146103c2578063b8adaa11146103de578063c87b56dd146103fa578063e985e9c51461042a5761014d565b80634cb84830146102b45780635d8a776e146102d05780636352211e146102ec57806370a082311461031c5780637284e4161461034c57806395d89b411461036a5761014d565b80631d143848116101155780631d1438481461020857806323b872dd146102265780632f4f25511461024257806342842e0e1461025e57806342966c681461027a57806342a04fea146102965761014d565b806301ffc9a71461015257806306fdde0314610182578063081812fc146101a0578063095ea7b3146101d057806319b05f49146101ec575b600080fd5b61016c60048036038101906101679190613253565b61045a565b604051610179919061395e565b60405180910390f35b61018a61053c565b6040516101979190613979565b60405180910390f35b6101ba60048036038101906101b591906132ad565b6105ce565b6040516101c791906138d5565b60405180910390f35b6101ea60048036038101906101e591906130f3565b610614565b005b610206600480360381019061020191906132ad565b61072c565b005b6102106108d9565b60405161021d91906138d5565b60405180910390f35b610240600480360381019061023b9190612fdd565b6108ff565b005b61025c60048036038101906102579190613133565b61095f565b005b61027860048036038101906102739190612fdd565b610c52565b005b610294600480360381019061028f91906132ad565b610c72565b005b61029e610efc565b6040516102ab919061393c565b60405180910390f35b6102ce60048036038101906102c9919061320a565b611231565b005b6102ea60048036038101906102e591906130f3565b611419565b005b610306600480360381019061030191906132ad565b61165c565b60405161031391906138d5565b60405180910390f35b61033660048036038101906103319190612f70565b61170e565b6040516103439190613c5b565b60405180910390f35b6103546117c6565b6040516103619190613979565b60405180910390f35b610372611854565b60405161037f9190613979565b60405180910390f35b6103906118e6565b60405161039d9190613c5b565b60405180910390f35b6103c060048036038101906103bb91906130b3565b6118ec565b005b6103dc60048036038101906103d79190613030565b611902565b005b6103f860048036038101906103f391906132ad565b611964565b005b610414600480360381019061040f91906132ad565b611ad4565b6040516104219190613979565b60405180910390f35b610444600480360381019061043f9190612f9d565b611b69565b604051610451919061395e565b60405180910390f35b60007f80ac58cd000000000000000000000000000000000000000000000000000000007bffffffffffffffffffffffffffffffffffffffffffffffffffffffff1916827bffffffffffffffffffffffffffffffffffffffffffffffffffffffff1916148061052557507f5b5e139f000000000000000000000000000000000000000000000000000000007bffffffffffffffffffffffffffffffffffffffffffffffffffffffff1916827bffffffffffffffffffffffffffffffffffffffffffffffffffffffff1916145b80610535575061053482611bfd565b5b9050919050565b60606000805461054b90613f5c565b80601f016020809104026020016040519081016040528092919081815260200182805461057790613f5c565b80156105c45780601f10610599576101008083540402835291602001916105c4565b820191906000526020600020905b8154815290600101906020018083116105a757829003601f168201915b5050505050905090565b60006105d982611c67565b6004600083815260200190815260200160002060009054906101000a900473ffffffffffffffffffffffffffffffffffffffff169050919050565b600061061f8261165c565b90508073ffffffffffffffffffffffffffffffffffffffff168373ffffffffffffffffffffffffffffffffffffffff161415610690576040517f08c379a000000000000000000000000000000000000000000000000000000000815260040161068790613bdb565b60405180910390fd5b8073ffffffffffffffffffffffffffffffffffffffff166106af611cb2565b73ffffffffffffffffffffffffffffffffffffffff1614806106de57506106dd816106d8611cb2565b611b69565b5b61071d576040517f08c379a000000000000000000000000000000000000000000000000000000000815260040161071490613b3b565b60405180910390fd5b6107278383611cba565b505050565b6006600082815260200190815260200160002060000160019054906101000a900473ffffffffffffffffffffffffffffffffffffffff1673ffffffffffffffffffffffffffffffffffffffff163373ffffffffffffffffffffffffffffffffffffffff16146107d0576040517f08c379a00000000000000000000000000000000000000000000000000000000081526004016107c790613b9b565b60405180910390fd5b600260048111156107e4576107e3614037565b5b6006600083815260200190815260200160002060000160009054906101000a900460ff16600481111561081a57610819614037565b5b1461085a576040517f08c379a0000000000000000000000000000000000000000000000000000000008152600401610851906139bb565b60405180910390fd5b60036006600083815260200190815260200160002060000160006101000a81548160ff0219169083600481111561089457610893614037565b5b02179055506108d6600860009054906101000a900473ffffffffffffffffffffffffffffffffffffffff16338360405180602001604052806000815250611d73565b50565b600860009054906101000a900473ffffffffffffffffffffffffffffffffffffffff1681565b61091061090a611cb2565b82611dcf565b61094f576040517f08c379a000000000000000000000000000000000000000000000000000000000815260040161094690613c3b565b60405180910390fd5b61095a838383611e64565b505050565b600860009054906101000a900473ffffffffffffffffffffffffffffffffffffffff1673ffffffffffffffffffffffffffffffffffffffff163373ffffffffffffffffffffffffffffffffffffffff16146109ef576040517f08c379a00000000000000000000000000000000000000000000000000000000081526004016109e690613abb565b60405180910390fd5b82518451148015610a01575081518451145b610a40576040517f08c379a0000000000000000000000000000000000000000000000000000000008152600401610a3790613a5b565b60405180910390fd5b60005b8451811015610c365760006040518060c0016040528060016004811115610a6d57610a6c614037565b5b8152602001600073ffffffffffffffffffffffffffffffffffffffff168152602001878481518110610aa257610aa1614095565b5b60200260200101518152602001868481518110610ac257610ac1614095565b5b60200260200101518152602001858481518110610ae257610ae1614095565b5b60200260200101518152602001848481518110610b0257610b01614095565b5b60200260200101518152509050806006600084600954610b229190613df7565b815260200190815260200160002060008201518160000160006101000a81548160ff02191690836004811115610b5b57610b5a614037565b5b021790555060208201518160000160016101000a81548173ffffffffffffffffffffffffffffffffffffffff021916908373ffffffffffffffffffffffffffffffffffffffff1602179055506040820151816001019080519060200190610bc3929190612bcc565b506060820151816002019080519060200190610be0929190612bcc565b506080820151816003015560a0820151816004019080519060200190610c07929190612bcc565b50905050610c223383600954610c1d9190613df7565b6120cb565b508080610c2e90613fbf565b915050610a43565b508351600954610c469190613df7565b60098190555050505050565b610c6d83838360405180602001604052806000815250611902565b505050565b60036004811115610c8657610c85614037565b5b6006600083815260200190815260200160002060000160009054906101000a900460ff166004811115610cbc57610cbb614037565b5b14610cfc576040517f08c379a0000000000000000000000000000000000000000000000000000000008152600401610cf3906139bb565b60405180910390fd5b6006600082815260200190815260200160002060000160019054906101000a900473ffffffffffffffffffffffffffffffffffffffff1673ffffffffffffffffffffffffffffffffffffffff163373ffffffffffffffffffffffffffffffffffffffff161480610db95750600860009054906101000a900473ffffffffffffffffffffffffffffffffffffffff1673ffffffffffffffffffffffffffffffffffffffff163373ffffffffffffffffffffffffffffffffffffffff16145b610df8576040517f08c379a0000000000000000000000000000000000000000000000000000000008152600401610def90613c1b565b60405180910390fd5b610e01816120e9565b610e09612c52565b806006600084815260200190815260200160002060008201518160000160006101000a81548160ff02191690836004811115610e4857610e47614037565b5b021790555060208201518160000160016101000a81548173ffffffffffffffffffffffffffffffffffffffff021916908373ffffffffffffffffffffffffffffffffffffffff1602179055506040820151816001019080519060200190610eb0929190612bcc565b506060820151816002019080519060200190610ecd929190612bcc565b506080820151816003015560a0820151816004019080519060200190610ef4929190612bcc565b509050505050565b606060006001600954610f0f9190613e4d565b67ffffffffffffffff811115610f2857610f276140c4565b5b604051908082528060200260200182016040528015610f6157816020015b610f4e612c52565b815260200190600190039081610f465790505b50905060005b6001600954610f769190613e4d565b8110156112295760066000600183610f8e9190613df7565b81526020019081526020016000206040518060c00160405290816000820160009054906101000a900460ff166004811115610fcc57610fcb614037565b5b6004811115610fde57610fdd614037565b5b81526020016000820160019054906101000a900473ffffffffffffffffffffffffffffffffffffffff1673ffffffffffffffffffffffffffffffffffffffff1673ffffffffffffffffffffffffffffffffffffffff16815260200160018201805461104890613f5c565b80601f016020809104026020016040519081016040528092919081815260200182805461107490613f5c565b80156110c15780601f10611096576101008083540402835291602001916110c1565b820191906000526020600020905b8154815290600101906020018083116110a457829003601f168201915b505050505081526020016002820180546110da90613f5c565b80601f016020809104026020016040519081016040528092919081815260200182805461110690613f5c565b80156111535780601f1061112857610100808354040283529160200191611153565b820191906000526020600020905b81548152906001019060200180831161113657829003601f168201915b505050505081526020016003820154815260200160048201805461117690613f5c565b80601f01602080910402602001604051908101604052809291908181526020018280546111a290613f5c565b80156111ef5780601f106111c4576101008083540402835291602001916111ef565b820191906000526020600020905b8154815290600101906020018083116111d257829003601f168201915b50505050508152505082828151811061120b5761120a614095565b5b6020026020010181905250808061122190613fbf565b915050610f67565b508091505090565b600860009054906101000a900473ffffffffffffffffffffffffffffffffffffffff1673ffffffffffffffffffffffffffffffffffffffff163373ffffffffffffffffffffffffffffffffffffffff16146112c1576040517f08c379a00000000000000000000000000000000000000000000000000000000081526004016112b890613b7b565b60405180910390fd5b60005b8151811015611415576112f08282815181106112e3576112e2614095565b5b60200260200101516120e9565b6112f8612c52565b80600660008585815181106113105761130f614095565b5b6020026020010151815260200190815260200160002060008201518160000160006101000a81548160ff0219169083600481111561135157611350614037565b5b021790555060208201518160000160016101000a81548173ffffffffffffffffffffffffffffffffffffffff021916908373ffffffffffffffffffffffffffffffffffffffff16021790555060408201518160010190805190602001906113b9929190612bcc565b5060608201518160020190805190602001906113d6929190612bcc565b506080820151816003015560a08201518160040190805190602001906113fd929190612bcc565b5090505050808061140d90613fbf565b9150506112c4565b5050565b600860009054906101000a900473ffffffffffffffffffffffffffffffffffffffff1673ffffffffffffffffffffffffffffffffffffffff163373ffffffffffffffffffffffffffffffffffffffff16146114a9576040517f08c379a00000000000000000000000000000000000000000000000000000000081526004016114a090613b1b565b60405180910390fd5b600860009054906101000a900473ffffffffffffffffffffffffffffffffffffffff1673ffffffffffffffffffffffffffffffffffffffff168273ffffffffffffffffffffffffffffffffffffffff16141561153a576040517f08c379a000000000000000000000000000000000000000000000000000000000815260040161153190613adb565b60405180910390fd5b6001600481111561154e5761154d614037565b5b6006600083815260200190815260200160002060000160009054906101000a900460ff16600481111561158457611583614037565b5b146115c4576040517f08c379a00000000000000000000000000000000000000000000000000000000081526004016115bb906139bb565b60405180910390fd5b816006600083815260200190815260200160002060000160016101000a81548173ffffffffffffffffffffffffffffffffffffffff021916908373ffffffffffffffffffffffffffffffffffffffff16021790555060026006600083815260200190815260200160002060000160006101000a81548160ff0219169083600481111561165357611652614037565b5b02179055505050565b6000806002600084815260200190815260200160002060009054906101000a900473ffffffffffffffffffffffffffffffffffffffff169050600073ffffffffffffffffffffffffffffffffffffffff168173ffffffffffffffffffffffffffffffffffffffff161415611705576040517f08c379a00000000000000000000000000000000000000000000000000000000081526004016116fc90613bbb565b60405180910390fd5b80915050919050565b60008073ffffffffffffffffffffffffffffffffffffffff168273ffffffffffffffffffffffffffffffffffffffff16141561177f576040517f08c379a000000000000000000000000000000000000000000000000000000000815260040161177690613afb565b60405180910390fd5b600360008373ffffffffffffffffffffffffffffffffffffffff1673ffffffffffffffffffffffffffffffffffffffff168152602001908152602001600020549050919050565b600780546117d390613f5c565b80601f01602080910402602001604051908101604052809291908181526020018280546117ff90613f5c565b801561184c5780601f106118215761010080835404028352916020019161184c565b820191906000526020600020905b81548152906001019060200180831161182f57829003601f168201915b505050505081565b60606001805461186390613f5c565b80601f016020809104026020016040519081016040528092919081815260200182805461188f90613f5c565b80156118dc5780601f106118b1576101008083540402835291602001916118dc565b820191906000526020600020905b8154815290600101906020018083116118bf57829003601f168201915b5050505050905090565b60095481565b6118fe6118f7611cb2565b8383612206565b5050565b61191361190d611cb2565b83611dcf565b611952576040517f08c379a000000000000000000000000000000000000000000000000000000000815260040161194990613c3b565b60405180910390fd5b61195e84848484611d73565b50505050565b6006600082815260200190815260200160002060000160019054906101000a900473ffffffffffffffffffffffffffffffffffffffff1673ffffffffffffffffffffffffffffffffffffffff163373ffffffffffffffffffffffffffffffffffffffff1614611a08576040517f08c379a00000000000000000000000000000000000000000000000000000000081526004016119ff90613bfb565b60405180910390fd5b60026004811115611a1c57611a1b614037565b5b6006600083815260200190815260200160002060000160009054906101000a900460ff166004811115611a5257611a51614037565b5b14611a92576040517f08c379a0000000000000000000000000000000000000000000000000000000008152600401611a89906139bb565b60405180910390fd5b60046006600083815260200190815260200160002060000160006101000a81548160ff02191690836004811115611acc57611acb614037565b5b021790555050565b6060611adf82612373565b611b1e576040517f08c379a0000000000000000000000000000000000000000000000000000000008152600401611b15906139db565b60405180910390fd5b6000611b286123df565b90508060066000858152602001908152602001600020600401604051602001611b529291906138b1565b604051602081830303815290604052915050919050565b6000600560008473ffffffffffffffffffffffffffffffffffffffff1673ffffffffffffffffffffffffffffffffffffffff16815260200190815260200160002060008373ffffffffffffffffffffffffffffffffffffffff1673ffffffffffffffffffffffffffffffffffffffff16815260200190815260200160002060009054906101000a900460ff16905092915050565b60007f01ffc9a7000000000000000000000000000000000000000000000000000000007bffffffffffffffffffffffffffffffffffffffffffffffffffffffff1916827bffffffffffffffffffffffffffffffffffffffffffffffffffffffff1916149050919050565b611c7081612373565b611caf576040517f08c379a0000000000000000000000000000000000000000000000000000000008152600401611ca690613bbb565b60405180910390fd5b50565b600033905090565b816004600083815260200190815260200160002060006101000a81548173ffffffffffffffffffffffffffffffffffffffff021916908373ffffffffffffffffffffffffffffffffffffffff160217905550808273ffffffffffffffffffffffffffffffffffffffff16611d2d8361165c565b73ffffffffffffffffffffffffffffffffffffffff167f8c5be1e5ebec7d5bd14f71427d1e84f3dd0314c0f7b2291e5b200ac8c7c3b92560405160405180910390a45050565b611d7e848484611e64565b611d8a8484848461241c565b611dc9576040517f08c379a0000000000000000000000000000000000000000000000000000000008152600401611dc0906139fb565b60405180910390fd5b50505050565b600080611ddb8361165c565b90508073ffffffffffffffffffffffffffffffffffffffff168473ffffffffffffffffffffffffffffffffffffffff161480611e1d5750611e1c8185611b69565b5b80611e5b57508373ffffffffffffffffffffffffffffffffffffffff16611e43846105ce565b73ffffffffffffffffffffffffffffffffffffffff16145b91505092915050565b8273ffffffffffffffffffffffffffffffffffffffff16611e848261165c565b73ffffffffffffffffffffffffffffffffffffffff1614611eda576040517f08c379a0000000000000000000000000000000000000000000000000000000008152600401611ed190613a1b565b60405180910390fd5b600073ffffffffffffffffffffffffffffffffffffffff168273ffffffffffffffffffffffffffffffffffffffff161415611f4a576040517f08c379a0000000000000000000000000000000000000000000000000000000008152600401611f4190613a7b565b60405180910390fd5b611f558383836125b3565b611f60600082611cba565b6001600360008573ffffffffffffffffffffffffffffffffffffffff1673ffffffffffffffffffffffffffffffffffffffff1681526020019081526020016000206000828254611fb09190613e4d565b925050819055506001600360008473ffffffffffffffffffffffffffffffffffffffff1673ffffffffffffffffffffffffffffffffffffffff16815260200190815260200160002060008282546120079190613df7565b92505081905550816002600083815260200190815260200160002060006101000a81548173ffffffffffffffffffffffffffffffffffffffff021916908373ffffffffffffffffffffffffffffffffffffffff160217905550808273ffffffffffffffffffffffffffffffffffffffff168473ffffffffffffffffffffffffffffffffffffffff167fddf252ad1be2c89b69c2b068fc378daa952ba7f163c4a11628f55a4df523b3ef60405160405180910390a46120c683838361296a565b505050565b6120e582826040518060200160405280600081525061296f565b5050565b60006120f48261165c565b9050612102816000846125b3565b61210d600083611cba565b6001600360008373ffffffffffffffffffffffffffffffffffffffff1673ffffffffffffffffffffffffffffffffffffffff168152602001908152602001600020600082825461215d9190613e4d565b925050819055506002600083815260200190815260200160002060006101000a81549073ffffffffffffffffffffffffffffffffffffffff021916905581600073ffffffffffffffffffffffffffffffffffffffff168273ffffffffffffffffffffffffffffffffffffffff167fddf252ad1be2c89b69c2b068fc378daa952ba7f163c4a11628f55a4df523b3ef60405160405180910390a46122028160008461296a565b5050565b8173ffffffffffffffffffffffffffffffffffffffff168373ffffffffffffffffffffffffffffffffffffffff161415612275576040517f08c379a000000000000000000000000000000000000000000000000000000000815260040161226c90613a9b565b60405180910390fd5b80600560008573ffffffffffffffffffffffffffffffffffffffff1673ffffffffffffffffffffffffffffffffffffffff16815260200190815260200160002060008473ffffffffffffffffffffffffffffffffffffffff1673ffffffffffffffffffffffffffffffffffffffff16815260200190815260200160002060006101000a81548160ff0219169083151502179055508173ffffffffffffffffffffffffffffffffffffffff168373ffffffffffffffffffffffffffffffffffffffff167f17307eab39ab6107e8899845ad3d59bd9653f200f220920489ca2b5937696c3183604051612366919061395e565b60405180910390a3505050565b60008073ffffffffffffffffffffffffffffffffffffffff166002600084815260200190815260200160002060009054906101000a900473ffffffffffffffffffffffffffffffffffffffff1673ffffffffffffffffffffffffffffffffffffffff1614159050919050565b60606040518060400160405280602081526020017f68747470733a2f2f766f722e696e667572612d697066732e696f2f697066732f815250905090565b600061243d8473ffffffffffffffffffffffffffffffffffffffff166129ca565b156125a6578373ffffffffffffffffffffffffffffffffffffffff1663150b7a02612466611cb2565b8786866040518563ffffffff1660e01b815260040161248894939291906138f0565b602060405180830381600087803b1580156124a257600080fd5b505af19250505080156124d357506040513d601f19601f820116820180604052508101906124d09190613280565b60015b612556573d8060008114612503576040519150601f19603f3d011682016040523d82523d6000602084013e612508565b606091505b5060008151141561254e576040517f08c379a0000000000000000000000000000000000000000000000000000000008152600401612545906139fb565b60405180910390fd5b805181602001fd5b63150b7a0260e01b7bffffffffffffffffffffffffffffffffffffffffffffffffffffffff1916817bffffffffffffffffffffffffffffffffffffffffffffffffffffffff1916149150506125ab565b600190505b949350505050565b600073ffffffffffffffffffffffffffffffffffffffff168273ffffffffffffffffffffffffffffffffffffffff1614801561263c5750600860009054906101000a900473ffffffffffffffffffffffffffffffffffffffff1673ffffffffffffffffffffffffffffffffffffffff168373ffffffffffffffffffffffffffffffffffffffff16145b806127335750600073ffffffffffffffffffffffffffffffffffffffff168273ffffffffffffffffffffffffffffffffffffffff161480156126df57506006600082815260200190815260200160002060000160019054906101000a900473ffffffffffffffffffffffffffffffffffffffff1673ffffffffffffffffffffffffffffffffffffffff168373ffffffffffffffffffffffffffffffffffffffff16145b80156127325750600360048111156126fa576126f9614037565b5b6006600083815260200190815260200160002060000160009054906101000a900460ff1660048111156127305761272f614037565b5b145b5b806128165750600073ffffffffffffffffffffffffffffffffffffffff168373ffffffffffffffffffffffffffffffffffffffff161480156127c25750600860009054906101000a900473ffffffffffffffffffffffffffffffffffffffff1673ffffffffffffffffffffffffffffffffffffffff168273ffffffffffffffffffffffffffffffffffffffff16145b80156128155750600160048111156127dd576127dc614037565b5b6006600083815260200190815260200160002060000160009054906101000a900460ff16600481111561281357612812614037565b5b145b5b8061291b5750600860009054906101000a900473ffffffffffffffffffffffffffffffffffffffff1673ffffffffffffffffffffffffffffffffffffffff168273ffffffffffffffffffffffffffffffffffffffff16141580156128c75750600860009054906101000a900473ffffffffffffffffffffffffffffffffffffffff1673ffffffffffffffffffffffffffffffffffffffff168373ffffffffffffffffffffffffffffffffffffffff16145b801561291a5750600360048111156128e2576128e1614037565b5b6006600083815260200190815260200160002060000160009054906101000a900460ff16600481111561291857612917614037565b5b145b5b61295a576040517f08c379a00000000000000000000000000000000000000000000000000000000081526004016129519061399b565b60405180910390fd5b6129658383836129ed565b505050565b505050565b61297983836129f2565b612986600084848461241c565b6129c5576040517f08c379a00000000000000000000000000000000000000000000000000000000081526004016129bc906139fb565b60405180910390fd5b505050565b6000808273ffffffffffffffffffffffffffffffffffffffff163b119050919050565b505050565b600073ffffffffffffffffffffffffffffffffffffffff168273ffffffffffffffffffffffffffffffffffffffff161415612a62576040517f08c379a0000000000000000000000000000000000000000000000000000000008152600401612a5990613b5b565b60405180910390fd5b612a6b81612373565b15612aab576040517f08c379a0000000000000000000000000000000000000000000000000000000008152600401612aa290613a3b565b60405180910390fd5b612ab7600083836125b3565b6001600360008473ffffffffffffffffffffffffffffffffffffffff1673ffffffffffffffffffffffffffffffffffffffff1681526020019081526020016000206000828254612b079190613df7565b92505081905550816002600083815260200190815260200160002060006101000a81548173ffffffffffffffffffffffffffffffffffffffff021916908373ffffffffffffffffffffffffffffffffffffffff160217905550808273ffffffffffffffffffffffffffffffffffffffff16600073ffffffffffffffffffffffffffffffffffffffff167fddf252ad1be2c89b69c2b068fc378daa952ba7f163c4a11628f55a4df523b3ef60405160405180910390a4612bc86000838361296a565b5050565b828054612bd890613f5c565b90600052602060002090601f016020900481019282612bfa5760008555612c41565b82601f10612c1357805160ff1916838001178555612c41565b82800160010185558215612c41579182015b82811115612c40578251825591602001919060010190612c25565b5b509050612c4e9190612cb0565b5090565b6040518060c0016040528060006004811115612c7157612c70614037565b5b8152602001600073ffffffffffffffffffffffffffffffffffffffff168152602001606081526020016060815260200160008152602001606081525090565b5b80821115612cc9576000816000905550600101612cb1565b5090565b6000612ce0612cdb84613c9b565b613c76565b90508083825260208201905082856020860282011115612d0357612d026140f8565b5b60005b85811015612d5157813567ffffffffffffffff811115612d2957612d286140f3565b5b808601612d368982612f2d565b85526020850194506020840193505050600181019050612d06565b5050509392505050565b6000612d6e612d6984613cc7565b613c76565b90508083825260208201905082856020860282011115612d9157612d906140f8565b5b60005b85811015612dc15781612da78882612f5b565b845260208401935060208301925050600181019050612d94565b5050509392505050565b6000612dde612dd984613cf3565b613c76565b905082815260208101848484011115612dfa57612df96140fd565b5b612e05848285613f1a565b509392505050565b6000612e20612e1b84613d24565b613c76565b905082815260208101848484011115612e3c57612e3b6140fd565b5b612e47848285613f1a565b509392505050565b600081359050612e5e816145e7565b92915050565b600082601f830112612e7957612e786140f3565b5b8135612e89848260208601612ccd565b91505092915050565b600082601f830112612ea757612ea66140f3565b5b8135612eb7848260208601612d5b565b91505092915050565b600081359050612ecf816145fe565b92915050565b600081359050612ee481614615565b92915050565b600081519050612ef981614615565b92915050565b600082601f830112612f1457612f136140f3565b5b8135612f24848260208601612dcb565b91505092915050565b600082601f830112612f4257612f416140f3565b5b8135612f52848260208601612e0d565b91505092915050565b600081359050612f6a8161462c565b92915050565b600060208284031215612f8657612f85614107565b5b6000612f9484828501612e4f565b91505092915050565b60008060408385031215612fb457612fb3614107565b5b6000612fc285828601612e4f565b9250506020612fd385828601612e4f565b9150509250929050565b600080600060608486031215612ff657612ff5614107565b5b600061300486828701612e4f565b935050602061301586828701612e4f565b925050604061302686828701612f5b565b9150509250925092565b6000806000806080858703121561304a57613049614107565b5b600061305887828801612e4f565b945050602061306987828801612e4f565b935050604061307a87828801612f5b565b925050606085013567ffffffffffffffff81111561309b5761309a614102565b5b6130a787828801612eff565b91505092959194509250565b600080604083850312156130ca576130c9614107565b5b60006130d885828601612e4f565b92505060206130e985828601612ec0565b9150509250929050565b6000806040838503121561310a57613109614107565b5b600061311885828601612e4f565b925050602061312985828601612f5b565b9150509250929050565b6000806000806080858703121561314d5761314c614107565b5b600085013567ffffffffffffffff81111561316b5761316a614102565b5b61317787828801612e64565b945050602085013567ffffffffffffffff81111561319857613197614102565b5b6131a487828801612e64565b935050604085013567ffffffffffffffff8111156131c5576131c4614102565b5b6131d187828801612e92565b925050606085013567ffffffffffffffff8111156131f2576131f1614102565b5b6131fe87828801612e64565b91505092959194509250565b6000602082840312156132205761321f614107565b5b600082013567ffffffffffffffff81111561323e5761323d614102565b5b61324a84828501612e92565b91505092915050565b60006020828403121561326957613268614107565b5b600061327784828501612ed5565b91505092915050565b60006020828403121561329657613295614107565b5b60006132a484828501612eea565b91505092915050565b6000602082840312156132c3576132c2614107565b5b60006132d184828501612f5b565b91505092915050565b60006132e683836137fc565b905092915050565b6132f781613e81565b82525050565b61330681613e81565b82525050565b600061331782613d7a565b6133218185613da8565b93508360208202850161333385613d55565b8060005b8581101561336f578484038952815161335085826132da565b945061335b83613d9b565b925060208a01995050600181019050613337565b50829750879550505050505092915050565b61338a81613e93565b82525050565b600061339b82613d85565b6133a58185613db9565b93506133b5818560208601613f29565b6133be8161410c565b840191505092915050565b6133d281613f08565b82525050565b60006133e382613d90565b6133ed8185613dca565b93506133fd818560208601613f29565b6134068161410c565b840191505092915050565b600061341c82613d90565b6134268185613ddb565b9350613436818560208601613f29565b61343f8161410c565b840191505092915050565b600061345582613d90565b61345f8185613dec565b935061346f818560208601613f29565b80840191505092915050565b6000815461348881613f5c565b6134928186613dec565b945060018216600081146134ad57600181146134be576134f1565b60ff198316865281860193506134f1565b6134c785613d65565b60005b838110156134e9578154818901526001820191506020810190506134ca565b838801955050505b50505092915050565b6000613507601083613ddb565b91506135128261411d565b602082019050919050565b600061352a601983613ddb565b915061353582614146565b602082019050919050565b600061354d601f83613ddb565b91506135588261416f565b602082019050919050565b6000613570603283613ddb565b915061357b82614198565b604082019050919050565b6000613593602583613ddb565b915061359e826141e7565b604082019050919050565b60006135b6601c83613ddb565b91506135c182614236565b602082019050919050565b60006135d9600c83613ddb565b91506135e48261425f565b602082019050919050565b60006135fc602483613ddb565b915061360782614288565b604082019050919050565b600061361f601983613ddb565b915061362a826142d7565b602082019050919050565b6000613642601c83613ddb565b915061364d82614300565b602082019050919050565b6000613665601f83613ddb565b915061367082614329565b602082019050919050565b6000613688602983613ddb565b915061369382614352565b604082019050919050565b60006136ab601e83613ddb565b91506136b6826143a1565b602082019050919050565b60006136ce603e83613ddb565b91506136d9826143ca565b604082019050919050565b60006136f1602083613ddb565b91506136fc82614419565b602082019050919050565b6000613714601f83613ddb565b915061371f82614442565b602082019050919050565b6000613737601f83613ddb565b91506137428261446b565b602082019050919050565b600061375a601883613ddb565b915061376582614494565b602082019050919050565b600061377d602183613ddb565b9150613788826144bd565b604082019050919050565b60006137a0601f83613ddb565b91506137ab8261450c565b602082019050919050565b60006137c3602a83613ddb565b91506137ce82614535565b604082019050919050565b60006137e6602e83613ddb565b91506137f182614584565b604082019050919050565b600060c08301600083015161381460008601826133c9565b50602083015161382760208601826132ee565b506040830151848203604086015261383f82826133d8565b9150506060830151848203606086015261385982826133d8565b915050608083015161386e6080860182613893565b5060a083015184820360a086015261388682826133d8565b9150508091505092915050565b61389c81613efe565b82525050565b6138ab81613efe565b82525050565b60006138bd828561344a565b91506138c9828461347b565b91508190509392505050565b60006020820190506138ea60008301846132fd565b92915050565b600060808201905061390560008301876132fd565b61391260208301866132fd565b61391f60408301856138a2565b81810360608301526139318184613390565b905095945050505050565b60006020820190508181036000830152613956818461330c565b905092915050565b60006020820190506139736000830184613381565b92915050565b600060208201905081810360008301526139938184613411565b905092915050565b600060208201905081810360008301526139b4816134fa565b9050919050565b600060208201905081810360008301526139d48161351d565b9050919050565b600060208201905081810360008301526139f481613540565b9050919050565b60006020820190508181036000830152613a1481613563565b9050919050565b60006020820190508181036000830152613a3481613586565b9050919050565b60006020820190508181036000830152613a54816135a9565b9050919050565b60006020820190508181036000830152613a74816135cc565b9050919050565b60006020820190508181036000830152613a94816135ef565b9050919050565b60006020820190508181036000830152613ab481613612565b9050919050565b60006020820190508181036000830152613ad481613635565b9050919050565b60006020820190508181036000830152613af481613658565b9050919050565b60006020820190508181036000830152613b148161367b565b9050919050565b60006020820190508181036000830152613b348161369e565b9050919050565b60006020820190508181036000830152613b54816136c1565b9050919050565b60006020820190508181036000830152613b74816136e4565b9050919050565b60006020820190508181036000830152613b9481613707565b9050919050565b60006020820190508181036000830152613bb48161372a565b9050919050565b60006020820190508181036000830152613bd48161374d565b9050919050565b60006020820190508181036000830152613bf481613770565b9050919050565b60006020820190508181036000830152613c1481613793565b9050919050565b60006020820190508181036000830152613c34816137b6565b9050919050565b60006020820190508181036000830152613c54816137d9565b9050919050565b6000602082019050613c7060008301846138a2565b92915050565b6000613c80613c91565b9050613c8c8282613f8e565b919050565b6000604051905090565b600067ffffffffffffffff821115613cb657613cb56140c4565b5b602082029050602081019050919050565b600067ffffffffffffffff821115613ce257613ce16140c4565b5b602082029050602081019050919050565b600067ffffffffffffffff821115613d0e57613d0d6140c4565b5b613d178261410c565b9050602081019050919050565b600067ffffffffffffffff821115613d3f57613d3e6140c4565b5b613d488261410c565b9050602081019050919050565b6000819050602082019050919050565b60008190508160005260206000209050919050565b600081519050919050565b600081519050919050565b600081519050919050565b6000602082019050919050565b600082825260208201905092915050565b600082825260208201905092915050565b600082825260208201905092915050565b600082825260208201905092915050565b600081905092915050565b6000613e0282613efe565b9150613e0d83613efe565b9250827fffffffffffffffffffffffffffffffffffffffffffffffffffffffffffffffff03821115613e4257613e41614008565b5b828201905092915050565b6000613e5882613efe565b9150613e6383613efe565b925082821015613e7657613e75614008565b5b828203905092915050565b6000613e8c82613ede565b9050919050565b60008115159050919050565b60007fffffffff0000000000000000000000000000000000000000000000000000000082169050919050565b6000819050613ed9826145d3565b919050565b600073ffffffffffffffffffffffffffffffffffffffff82169050919050565b6000819050919050565b6000613f1382613ecb565b9050919050565b82818337600083830152505050565b60005b83811015613f47578082015181840152602081019050613f2c565b83811115613f56576000848401525b50505050565b60006002820490506001821680613f7457607f821691505b60208210811415613f8857613f87614066565b5b50919050565b613f978261410c565b810181811067ffffffffffffffff82111715613fb657613fb56140c4565b5b80604052505050565b6000613fca82613efe565b91507fffffffffffffffffffffffffffffffffffffffffffffffffffffffffffffffff821415613ffd57613ffc614008565b5b600182019050919050565b7f4e487b7100000000000000000000000000000000000000000000000000000000600052601160045260246000fd5b7f4e487b7100000000000000000000000000000000000000000000000000000000600052602160045260246000fd5b7f4e487b7100000000000000000000000000000000000000000000000000000000600052602260045260246000fd5b7f4e487b7100000000000000000000000000000000000000000000000000000000600052603260045260246000fd5b7f4e487b7100000000000000000000000000000000000000000000000000000000600052604160045260246000fd5b600080fd5b600080fd5b600080fd5b600080fd5b600080fd5b6000601f19601f8301169050919050565b7f496e76616c6964207472616e7366657200000000000000000000000000000000600082015250565b7f426164676520697320696e20696e76616c696420737461746500000000000000600082015250565b7f55524920717565727920666f72206e6f6e6578697374656e7420746f6b656e00600082015250565b7f4552433732313a207472616e7366657220746f206e6f6e20455243373231526560008201527f63656976657220696d706c656d656e7465720000000000000000000000000000602082015250565b7f4552433732313a207472616e736665722066726f6d20696e636f72726563742060008201527f6f776e6572000000000000000000000000000000000000000000000000000000602082015250565b7f4552433732313a20746f6b656e20616c7265616479206d696e74656400000000600082015250565b7f496e7661696420696e7075740000000000000000000000000000000000000000600082015250565b7f4552433732313a207472616e7366657220746f20746865207a65726f2061646460008201527f7265737300000000000000000000000000000000000000000000000000000000602082015250565b7f4552433732313a20617070726f766520746f2063616c6c657200000000000000600082015250565b7f4f6e6c79206f7267616e697a65722063616e2061646420626164676500000000600082015250565b7f43616e6e6f7420617761726420626164676520746f206f7267616e697a657200600082015250565b7f4552433732313a2061646472657373207a65726f206973206e6f74206120766160008201527f6c6964206f776e65720000000000000000000000000000000000000000000000602082015250565b7f4f6e6c79206f7267616e697a65722063616e2061776172642062616467650000600082015250565b7f4552433732313a20617070726f76652063616c6c6572206973206e6f7420746f60008201527f6b656e206f776e6572206e6f7220617070726f76656420666f7220616c6c0000602082015250565b7f4552433732313a206d696e7420746f20746865207a65726f2061646472657373600082015250565b7f4f6e6c79206f7267616e697a65722063616e2072656d6f766520626164676500600082015250565b7f4f6e6c7920726563697069656e742063616e2061636365707420626164676500600082015250565b7f4552433732313a20696e76616c696420746f6b656e2049440000000000000000600082015250565b7f4552433732313a20617070726f76616c20746f2063757272656e74206f776e6560008201527f7200000000000000000000000000000000000000000000000000000000000000602082015250565b7f4f6e6c7920726563697069656e742063616e2072656a65637420626164676500600082015250565b7f4f6e6c79206f7267616e697a6572206f7220726563657069656e742063616e2060008201527f6275726e20626164676500000000000000000000000000000000000000000000602082015250565b7f4552433732313a2063616c6c6572206973206e6f7420746f6b656e206f776e6560008201527f72206e6f7220617070726f766564000000000000000000000000000000000000602082015250565b600581106145e4576145e3614037565b5b50565b6145f081613e81565b81146145fb57600080fd5b50565b61460781613e93565b811461461257600080fd5b50565b61461e81613e9f565b811461462957600080fd5b50565b61463581613efe565b811461464057600080fd5b5056fea2646970667358221220710dfc3771c8dd3e0a85afdf170fcfafbbe44e1b44967f2c702a7df68b6f0cb064736f6c63430008070033",
  "linkReferences": {},
  "deployedLinkReferences": {}
}