{
  "_format": "hh-sol-artifact-1",
  "contractName": "VOREvent",
  "sourceName": "contracts/VOREvent.sol",
  "abi": [
    {
      "inputs": [
        {
          "internalType": "string",
          "name": "_name",
          "type": "string"
        },
        {
          "internalType": "string",
          "name": "_description",
          "type": "string"
        },
        {
          "internalType": "address",
          "name": "_issuer",
          "type": "address"
        }
      ],
      "stateMutability": "nonpayable",
      "type": "constructor"
    },
    {
      "anonymous": false,
      "inputs": [
        {
          "indexed": true,
          "internalType": "address",
          "name": "owner",
          "type": "address"
        },
        {
          "indexed": true,
          "internalType": "address",
          "name": "approved",
          "type": "address"
        },
        {
          "indexed": true,
          "internalType": "uint256",
          "name": "tokenId",
          "type": "uint256"
        }
      ],
      "name": "Approval",
      "type": "event"
    },
    {
      "anonymous": false,
      "inputs": [
        {
          "indexed": true,
          "internalType": "address",
          "name": "owner",
          "type": "address"
        },
        {
          "indexed": true,
          "internalType": "address",
          "name": "operator",
          "type": "address"
        },
        {
          "indexed": false,
          "internalType": "bool",
          "name": "approved",
          "type": "bool"
        }
      ],
      "name": "ApprovalForAll",
      "type": "event"
    },
    {
      "anonymous": false,
      "inputs": [
        {
          "indexed": true,
          "internalType": "address",
          "name": "from",
          "type": "address"
        },
        {
          "indexed": true,
          "internalType": "address",
          "name": "to",
          "type": "address"
        },
        {
          "indexed": true,
          "internalType": "uint256",
          "name": "tokenId",
          "type": "uint256"
        }
      ],
      "name": "Transfer",
      "type": "event"
    },
    {
      "inputs": [
        {
          "internalType": "uint256",
          "name": "_tokenId",
          "type": "uint256"
        }
      ],
      "name": "accept",
      "outputs": [],
      "stateMutability": "nonpayable",
      "type": "function"
    },
    {
      "inputs": [
        {
          "internalType": "string[]",
          "name": "_names",
          "type": "string[]"
        },
        {
          "internalType": "string[]",
          "name": "_descriptions",
          "type": "string[]"
        },
        {
          "internalType": "uint256[]",
          "name": "_groups",
          "type": "uint256[]"
        },
        {
          "internalType": "string[]",
          "name": "_cids",
          "type": "string[]"
        },
        {
          "internalType": "uint8[]",
          "name": "_categories",
          "type": "uint8[]"
        }
      ],
      "name": "addBadges",
      "outputs": [],
      "stateMutability": "nonpayable",
      "type": "function"
    },
    {
      "inputs": [
        {
          "internalType": "address",
          "name": "to",
          "type": "address"
        },
        {
          "internalType": "uint256",
          "name": "tokenId",
          "type": "uint256"
        }
      ],
      "name": "approve",
      "outputs": [],
      "stateMutability": "nonpayable",
      "type": "function"
    },
    {
      "inputs": [
        {
          "internalType": "address",
          "name": "_to",
          "type": "address"
        },
        {
          "internalType": "uint256",
          "name": "_tokenId",
          "type": "uint256"
        }
      ],
      "name": "award",
      "outputs": [],
      "stateMutability": "nonpayable",
      "type": "function"
    },
    {
      "inputs": [
        {
          "internalType": "address",
          "name": "owner",
          "type": "address"
        }
      ],
      "name": "balanceOf",
      "outputs": [
        {
          "internalType": "uint256",
          "name": "",
          "type": "uint256"
        }
      ],
      "stateMutability": "view",
      "type": "function"
    },
    {
      "inputs": [
        {
          "internalType": "uint256",
          "name": "_tokenId",
          "type": "uint256"
        }
      ],
      "name": "burn",
      "outputs": [],
      "stateMutability": "nonpayable",
      "type": "function"
    },
    {
      "inputs": [],
      "name": "description",
      "outputs": [
        {
          "internalType": "string",
          "name": "",
          "type": "string"
        }
      ],
      "stateMutability": "view",
      "type": "function"
    },
    {
      "inputs": [
        {
          "internalType": "uint256",
          "name": "tokenId",
          "type": "uint256"
        }
      ],
      "name": "getApproved",
      "outputs": [
        {
          "internalType": "address",
          "name": "",
          "type": "address"
        }
      ],
      "stateMutability": "view",
      "type": "function"
    },
    {
      "inputs": [],
      "name": "getBadges",
      "outputs": [
        {
          "components": [
            {
              "internalType": "enum VOREvent.BadgeState",
              "name": "state",
              "type": "uint8"
            },
            {
              "internalType": "address",
              "name": "recipient",
              "type": "address"
            },
            {
              "internalType": "string",
              "name": "name",
              "type": "string"
            },
            {
              "internalType": "string",
              "name": "description",
              "type": "string"
            },
            {
              "internalType": "uint256",
              "name": "group",
              "type": "uint256"
            },
            {
              "internalType": "string",
              "name": "cid",
              "type": "string"
            },
            {
              "internalType": "uint8",
              "name": "category",
              "type": "uint8"
            }
          ],
          "internalType": "struct VOREvent.Badge[]",
          "name": "",
          "type": "tuple[]"
        }
      ],
      "stateMutability": "view",
      "type": "function"
    },
    {
      "inputs": [
        {
          "internalType": "address",
          "name": "owner",
          "type": "address"
        },
        {
          "internalType": "address",
          "name": "operator",
          "type": "address"
        }
      ],
      "name": "isApprovedForAll",
      "outputs": [
        {
          "internalType": "bool",
          "name": "",
          "type": "bool"
        }
      ],
      "stateMutability": "view",
      "type": "function"
    },
    {
      "inputs": [],
      "name": "issuer",
      "outputs": [
        {
          "internalType": "address",
          "name": "",
          "type": "address"
        }
      ],
      "stateMutability": "view",
      "type": "function"
    },
    {
      "inputs": [],
      "name": "name",
      "outputs": [
        {
          "internalType": "string",
          "name": "",
          "type": "string"
        }
      ],
      "stateMutability": "view",
      "type": "function"
    },
    {
      "inputs": [
        {
          "internalType": "uint256",
          "name": "tokenId",
          "type": "uint256"
        }
      ],
      "name": "ownerOf",
      "outputs": [
        {
          "internalType": "address",
          "name": "",
          "type": "address"
        }
      ],
      "stateMutability": "view",
      "type": "function"
    },
    {
      "inputs": [
        {
          "internalType": "uint256",
          "name": "_tokenId",
          "type": "uint256"
        }
      ],
      "name": "reject",
      "outputs": [],
      "stateMutability": "nonpayable",
      "type": "function"
    },
    {
      "inputs": [
        {
          "internalType": "uint256[]",
          "name": "_tokenIds",
          "type": "uint256[]"
        }
      ],
      "name": "removeBadges",
      "outputs": [],
      "stateMutability": "nonpayable",
      "type": "function"
    },
    {
      "inputs": [
        {
          "internalType": "address",
          "name": "from",
          "type": "address"
        },
        {
          "internalType": "address",
          "name": "to",
          "type": "address"
        },
        {
          "internalType": "uint256",
          "name": "tokenId",
          "type": "uint256"
        }
      ],
      "name": "safeTransferFrom",
      "outputs": [],
      "stateMutability": "nonpayable",
      "type": "function"
    },
    {
      "inputs": [
        {
          "internalType": "address",
          "name": "from",
          "type": "address"
        },
        {
          "internalType": "address",
          "name": "to",
          "type": "address"
        },
        {
          "internalType": "uint256",
          "name": "tokenId",
          "type": "uint256"
        },
        {
          "internalType": "bytes",
          "name": "data",
          "type": "bytes"
        }
      ],
      "name": "safeTransferFrom",
      "outputs": [],
      "stateMutability": "nonpayable",
      "type": "function"
    },
    {
      "inputs": [
        {
          "internalType": "address",
          "name": "operator",
          "type": "address"
        },
        {
          "internalType": "bool",
          "name": "approved",
          "type": "bool"
        }
      ],
      "name": "setApprovalForAll",
      "outputs": [],
      "stateMutability": "nonpayable",
      "type": "function"
    },
    {
      "inputs": [
        {
          "internalType": "bytes4",
          "name": "interfaceId",
          "type": "bytes4"
        }
      ],
      "name": "supportsInterface",
      "outputs": [
        {
          "internalType": "bool",
          "name": "",
          "type": "bool"
        }
      ],
      "stateMutability": "view",
      "type": "function"
    },
    {
      "inputs": [],
      "name": "symbol",
      "outputs": [
        {
          "internalType": "string",
          "name": "",
          "type": "string"
        }
      ],
      "stateMutability": "view",
      "type": "function"
    },
    {
      "inputs": [],
      "name": "tokenIdCounter",
      "outputs": [
        {
          "internalType": "uint256",
          "name": "",
          "type": "uint256"
        }
      ],
      "stateMutability": "view",
      "type": "function"
    },
    {
      "inputs": [
        {
          "internalType": "uint256",
          "name": "_tokenId",
          "type": "uint256"
        }
      ],
      "name": "tokenURI",
      "outputs": [
        {
          "internalType": "string",
          "name": "",
          "type": "string"
        }
      ],
      "stateMutability": "view",
      "type": "function"
    },
    {
      "inputs": [
        {
          "internalType": "address",
          "name": "from",
          "type": "address"
        },
        {
          "internalType": "address",
          "name": "to",
          "type": "address"
        },
        {
          "internalType": "uint256",
          "name": "tokenId",
          "type": "uint256"
        }
      ],
      "name": "transferFrom",
      "outputs": [],
      "stateMutability": "nonpayable",
      "type": "function"
    }
  ],
  "bytecode": "0x60806040523480156200001157600080fd5b5060405162004d6438038062004d64833981810160405281019062000037919062000252565b826040518060400160405280600481526020017f564f5242000000000000000000000000000000000000000000000000000000008152508160009080519060200190620000869291906200010d565b5080600190805190602001906200009f9291906200010d565b5050508160079080519060200190620000ba9291906200010d565b5080600860006101000a81548173ffffffffffffffffffffffffffffffffffffffff021916908373ffffffffffffffffffffffffffffffffffffffff1602179055506001600981905550505050620004be565b8280546200011b90620003b5565b90600052602060002090601f0160209004810192826200013f57600085556200018b565b82601f106200015a57805160ff19168380011785556200018b565b828001600101855582156200018b579182015b828111156200018a5782518255916020019190600101906200016d565b5b5090506200019a91906200019e565b5090565b5b80821115620001b95760008160009055506001016200019f565b5090565b6000620001d4620001ce8462000315565b620002ec565b905082815260208101848484011115620001f357620001f262000484565b5b620002008482856200037f565b509392505050565b6000815190506200021981620004a4565b92915050565b600082601f8301126200023757620002366200047f565b5b815162000249848260208601620001bd565b91505092915050565b6000806000606084860312156200026e576200026d6200048e565b5b600084015167ffffffffffffffff8111156200028f576200028e62000489565b5b6200029d868287016200021f565b935050602084015167ffffffffffffffff811115620002c157620002c062000489565b5b620002cf868287016200021f565b9250506040620002e28682870162000208565b9150509250925092565b6000620002f86200030b565b9050620003068282620003eb565b919050565b6000604051905090565b600067ffffffffffffffff82111562000333576200033262000450565b5b6200033e8262000493565b9050602081019050919050565b600062000358826200035f565b9050919050565b600073ffffffffffffffffffffffffffffffffffffffff82169050919050565b60005b838110156200039f57808201518184015260208101905062000382565b83811115620003af576000848401525b50505050565b60006002820490506001821680620003ce57607f821691505b60208210811415620003e557620003e462000421565b5b50919050565b620003f68262000493565b810181811067ffffffffffffffff8211171562000418576200041762000450565b5b80604052505050565b7f4e487b7100000000000000000000000000000000000000000000000000000000600052602260045260246000fd5b7f4e487b7100000000000000000000000000000000000000000000000000000000600052604160045260246000fd5b600080fd5b600080fd5b600080fd5b600080fd5b6000601f19601f8301169050919050565b620004af816200034b565b8114620004bb57600080fd5b50565b61489680620004ce6000396000f3fe608060405234801561001057600080fd5b506004361061014d5760003560e01c80635d8a776e116100c3578063a22cb4651161007c578063a22cb4651461038a578063b88d4fde146103a6578063b8adaa11146103c2578063c7ec8748146103de578063c87b56dd146103fa578063e985e9c51461042a5761014d565b80635d8a776e146102b45780636352211e146102d057806370a08231146103005780637284e4161461033057806395d89b411461034e57806398bdf6f51461036c5761014d565b80631d143848116101155780631d1438481461020857806323b872dd1461022657806342842e0e1461024257806342966c681461025e57806342a04fea1461027a5780634cb84830146102985761014d565b806301ffc9a71461015257806306fdde0314610182578063081812fc146101a0578063095ea7b3146101d057806319b05f49146101ec575b600080fd5b61016c600480360381019061016791906133fe565b61045a565b6040516101799190613b2b565b60405180910390f35b61018a61053c565b6040516101979190613b46565b60405180910390f35b6101ba60048036038101906101b59190613458565b6105ce565b6040516101c79190613aa2565b60405180910390f35b6101ea60048036038101906101e5919061326e565b610614565b005b61020660048036038101906102019190613458565b61072c565b005b6102106108d9565b60405161021d9190613aa2565b60405180910390f35b610240600480360381019061023b9190613158565b6108ff565b005b61025c60048036038101906102579190613158565b61095f565b005b61027860048036038101906102739190613458565b61097f565b005b610282610c2a565b60405161028f9190613b09565b60405180910390f35b6102b260048036038101906102ad91906133b5565b610f7c565b005b6102ce60048036038101906102c9919061326e565b611185565b005b6102ea60048036038101906102e59190613458565b6113c8565b6040516102f79190613aa2565b60405180910390f35b61031a600480360381019061031591906130eb565b61147a565b6040516103279190613e28565b60405180910390f35b610338611532565b6040516103459190613b46565b60405180910390f35b6103566115c0565b6040516103639190613b46565b60405180910390f35b610374611652565b6040516103819190613e28565b60405180910390f35b6103a4600480360381019061039f919061322e565b611658565b005b6103c060048036038101906103bb91906131ab565b61166e565b005b6103dc60048036038101906103d79190613458565b6116d0565b005b6103f860048036038101906103f391906132ae565b611840565b005b610414600480360381019061040f9190613458565b611b92565b6040516104219190613b46565b60405180910390f35b610444600480360381019061043f9190613118565b611c27565b6040516104519190613b2b565b60405180910390f35b60007f80ac58cd000000000000000000000000000000000000000000000000000000007bffffffffffffffffffffffffffffffffffffffffffffffffffffffff1916827bffffffffffffffffffffffffffffffffffffffffffffffffffffffff1916148061052557507f5b5e139f000000000000000000000000000000000000000000000000000000007bffffffffffffffffffffffffffffffffffffffffffffffffffffffff1916827bffffffffffffffffffffffffffffffffffffffffffffffffffffffff1916145b80610535575061053482611cbb565b5b9050919050565b60606000805461054b90614162565b80601f016020809104026020016040519081016040528092919081815260200182805461057790614162565b80156105c45780601f10610599576101008083540402835291602001916105c4565b820191906000526020600020905b8154815290600101906020018083116105a757829003601f168201915b5050505050905090565b60006105d982611d25565b6004600083815260200190815260200160002060009054906101000a900473ffffffffffffffffffffffffffffffffffffffff169050919050565b600061061f826113c8565b90508073ffffffffffffffffffffffffffffffffffffffff168373ffffffffffffffffffffffffffffffffffffffff161415610690576040517f08c379a000000000000000000000000000000000000000000000000000000000815260040161068790613da8565b60405180910390fd5b8073ffffffffffffffffffffffffffffffffffffffff166106af611d70565b73ffffffffffffffffffffffffffffffffffffffff1614806106de57506106dd816106d8611d70565b611c27565b5b61071d576040517f08c379a000000000000000000000000000000000000000000000000000000000815260040161071490613d08565b60405180910390fd5b6107278383611d78565b505050565b6006600082815260200190815260200160002060000160019054906101000a900473ffffffffffffffffffffffffffffffffffffffff1673ffffffffffffffffffffffffffffffffffffffff163373ffffffffffffffffffffffffffffffffffffffff16146107d0576040517f08c379a00000000000000000000000000000000000000000000000000000000081526004016107c790613d68565b60405180910390fd5b600260048111156107e4576107e361423d565b5b6006600083815260200190815260200160002060000160009054906101000a900460ff16600481111561081a5761081961423d565b5b1461085a576040517f08c379a000000000000000000000000000000000000000000000000000000000815260040161085190613b88565b60405180910390fd5b60036006600083815260200190815260200160002060000160006101000a81548160ff021916908360048111156108945761089361423d565b5b02179055506108d6600860009054906101000a900473ffffffffffffffffffffffffffffffffffffffff16338360405180602001604052806000815250611e31565b50565b600860009054906101000a900473ffffffffffffffffffffffffffffffffffffffff1681565b61091061090a611d70565b82611e8d565b61094f576040517f08c379a000000000000000000000000000000000000000000000000000000000815260040161094690613e08565b60405180910390fd5b61095a838383611f22565b505050565b61097a8383836040518060200160405280600081525061166e565b505050565b600360048111156109935761099261423d565b5b6006600083815260200190815260200160002060000160009054906101000a900460ff1660048111156109c9576109c861423d565b5b14610a09576040517f08c379a0000000000000000000000000000000000000000000000000000000008152600401610a0090613b88565b60405180910390fd5b6006600082815260200190815260200160002060000160019054906101000a900473ffffffffffffffffffffffffffffffffffffffff1673ffffffffffffffffffffffffffffffffffffffff163373ffffffffffffffffffffffffffffffffffffffff161480610ac65750600860009054906101000a900473ffffffffffffffffffffffffffffffffffffffff1673ffffffffffffffffffffffffffffffffffffffff163373ffffffffffffffffffffffffffffffffffffffff16145b610b05576040517f08c379a0000000000000000000000000000000000000000000000000000000008152600401610afc90613de8565b60405180910390fd5b610b0e81612189565b610b16612c8a565b806006600084815260200190815260200160002060008201518160000160006101000a81548160ff02191690836004811115610b5557610b5461423d565b5b021790555060208201518160000160016101000a81548173ffffffffffffffffffffffffffffffffffffffff021916908373ffffffffffffffffffffffffffffffffffffffff1602179055506040820151816001019080519060200190610bbd929190612cf2565b506060820151816002019080519060200190610bda929190612cf2565b506080820151816003015560a0820151816004019080519060200190610c01929190612cf2565b5060c08201518160050160006101000a81548160ff021916908360ff1602179055509050505050565b606060006001600954610c3d9190614046565b67ffffffffffffffff811115610c5657610c556142ca565b5b604051908082528060200260200182016040528015610c8f57816020015b610c7c612c8a565b815260200190600190039081610c745790505b50905060005b6001600954610ca49190614046565b811015610f745760066000600183610cbc9190613ff0565b81526020019081526020016000206040518060e00160405290816000820160009054906101000a900460ff166004811115610cfa57610cf961423d565b5b6004811115610d0c57610d0b61423d565b5b81526020016000820160019054906101000a900473ffffffffffffffffffffffffffffffffffffffff1673ffffffffffffffffffffffffffffffffffffffff1673ffffffffffffffffffffffffffffffffffffffff168152602001600182018054610d7690614162565b80601f0160208091040260200160405190810160405280929190818152602001828054610da290614162565b8015610def5780601f10610dc457610100808354040283529160200191610def565b820191906000526020600020905b815481529060010190602001808311610dd257829003601f168201915b50505050508152602001600282018054610e0890614162565b80601f0160208091040260200160405190810160405280929190818152602001828054610e3490614162565b8015610e815780601f10610e5657610100808354040283529160200191610e81565b820191906000526020600020905b815481529060010190602001808311610e6457829003601f168201915b5050505050815260200160038201548152602001600482018054610ea490614162565b80601f0160208091040260200160405190810160405280929190818152602001828054610ed090614162565b8015610f1d5780601f10610ef257610100808354040283529160200191610f1d565b820191906000526020600020905b815481529060010190602001808311610f0057829003601f168201915b505050505081526020016005820160009054906101000a900460ff1660ff1660ff1681525050828281518110610f5657610f5561429b565b5b60200260200101819052508080610f6c906141c5565b915050610c95565b508091505090565b600860009054906101000a900473ffffffffffffffffffffffffffffffffffffffff1673ffffffffffffffffffffffffffffffffffffffff163373ffffffffffffffffffffffffffffffffffffffff161461100c576040517f08c379a000000000000000000000000000000000000000000000000000000000815260040161100390613d48565b60405180910390fd5b60005b81518110156111815761103b82828151811061102e5761102d61429b565b5b6020026020010151612189565b611043612c8a565b806006600085858151811061105b5761105a61429b565b5b6020026020010151815260200190815260200160002060008201518160000160006101000a81548160ff0219169083600481111561109c5761109b61423d565b5b021790555060208201518160000160016101000a81548173ffffffffffffffffffffffffffffffffffffffff021916908373ffffffffffffffffffffffffffffffffffffffff1602179055506040820151816001019080519060200190611104929190612cf2565b506060820151816002019080519060200190611121929190612cf2565b506080820151816003015560a0820151816004019080519060200190611148929190612cf2565b5060c08201518160050160006101000a81548160ff021916908360ff160217905550905050508080611179906141c5565b91505061100f565b5050565b600860009054906101000a900473ffffffffffffffffffffffffffffffffffffffff1673ffffffffffffffffffffffffffffffffffffffff163373ffffffffffffffffffffffffffffffffffffffff1614611215576040517f08c379a000000000000000000000000000000000000000000000000000000000815260040161120c90613ce8565b60405180910390fd5b600860009054906101000a900473ffffffffffffffffffffffffffffffffffffffff1673ffffffffffffffffffffffffffffffffffffffff168273ffffffffffffffffffffffffffffffffffffffff1614156112a6576040517f08c379a000000000000000000000000000000000000000000000000000000000815260040161129d90613ca8565b60405180910390fd5b600160048111156112ba576112b961423d565b5b6006600083815260200190815260200160002060000160009054906101000a900460ff1660048111156112f0576112ef61423d565b5b14611330576040517f08c379a000000000000000000000000000000000000000000000000000000000815260040161132790613b88565b60405180910390fd5b816006600083815260200190815260200160002060000160016101000a81548173ffffffffffffffffffffffffffffffffffffffff021916908373ffffffffffffffffffffffffffffffffffffffff16021790555060026006600083815260200190815260200160002060000160006101000a81548160ff021916908360048111156113bf576113be61423d565b5b02179055505050565b6000806002600084815260200190815260200160002060009054906101000a900473ffffffffffffffffffffffffffffffffffffffff169050600073ffffffffffffffffffffffffffffffffffffffff168173ffffffffffffffffffffffffffffffffffffffff161415611471576040517f08c379a000000000000000000000000000000000000000000000000000000000815260040161146890613d88565b60405180910390fd5b80915050919050565b60008073ffffffffffffffffffffffffffffffffffffffff168273ffffffffffffffffffffffffffffffffffffffff1614156114eb576040517f08c379a00000000000000000000000000000000000000000000000000000000081526004016114e290613cc8565b60405180910390fd5b600360008373ffffffffffffffffffffffffffffffffffffffff1673ffffffffffffffffffffffffffffffffffffffff168152602001908152602001600020549050919050565b6007805461153f90614162565b80601f016020809104026020016040519081016040528092919081815260200182805461156b90614162565b80156115b85780601f1061158d576101008083540402835291602001916115b8565b820191906000526020600020905b81548152906001019060200180831161159b57829003601f168201915b505050505081565b6060600180546115cf90614162565b80601f01602080910402602001604051908101604052809291908181526020018280546115fb90614162565b80156116485780601f1061161d57610100808354040283529160200191611648565b820191906000526020600020905b81548152906001019060200180831161162b57829003601f168201915b5050505050905090565b60095481565b61166a611663611d70565b83836122a6565b5050565b61167f611679611d70565b83611e8d565b6116be576040517f08c379a00000000000000000000000000000000000000000000000000000000081526004016116b590613e08565b60405180910390fd5b6116ca84848484611e31565b50505050565b6006600082815260200190815260200160002060000160019054906101000a900473ffffffffffffffffffffffffffffffffffffffff1673ffffffffffffffffffffffffffffffffffffffff163373ffffffffffffffffffffffffffffffffffffffff1614611774576040517f08c379a000000000000000000000000000000000000000000000000000000000815260040161176b90613dc8565b60405180910390fd5b600260048111156117885761178761423d565b5b6006600083815260200190815260200160002060000160009054906101000a900460ff1660048111156117be576117bd61423d565b5b146117fe576040517f08c379a00000000000000000000000000000000000000000000000000000000081526004016117f590613b88565b60405180910390fd5b60046006600083815260200190815260200160002060000160006101000a81548160ff021916908360048111156118385761183761423d565b5b021790555050565b600860009054906101000a900473ffffffffffffffffffffffffffffffffffffffff1673ffffffffffffffffffffffffffffffffffffffff163373ffffffffffffffffffffffffffffffffffffffff16146118d0576040517f08c379a00000000000000000000000000000000000000000000000000000000081526004016118c790613c88565b60405180910390fd5b835185511480156118e2575082518551145b80156118ef575081518551145b80156118fc575080518551145b61193b576040517f08c379a000000000000000000000000000000000000000000000000000000000815260040161193290613c28565b60405180910390fd5b60005b8551811015611b755760006040518060e00160405280600160048111156119685761196761423d565b5b8152602001600073ffffffffffffffffffffffffffffffffffffffff16815260200188848151811061199d5761199c61429b565b5b602002602001015181526020018784815181106119bd576119bc61429b565b5b602002602001015181526020018684815181106119dd576119dc61429b565b5b602002602001015181526020018584815181106119fd576119fc61429b565b5b60200260200101518152602001848481518110611a1d57611a1c61429b565b5b602002602001015160ff168152509050806006600084600954611a409190613ff0565b815260200190815260200160002060008201518160000160006101000a81548160ff02191690836004811115611a7957611a7861423d565b5b021790555060208201518160000160016101000a81548173ffffffffffffffffffffffffffffffffffffffff021916908373ffffffffffffffffffffffffffffffffffffffff1602179055506040820151816001019080519060200190611ae1929190612cf2565b506060820151816002019080519060200190611afe929190612cf2565b506080820151816003015560a0820151816004019080519060200190611b25929190612cf2565b5060c08201518160050160006101000a81548160ff021916908360ff160217905550905050611b613383600954611b5c9190613ff0565b612413565b508080611b6d906141c5565b91505061193e565b508451600954611b859190613ff0565b6009819055505050505050565b6060611b9d82612431565b611bdc576040517f08c379a0000000000000000000000000000000000000000000000000000000008152600401611bd390613ba8565b60405180910390fd5b6000611be661249d565b90508060066000858152602001908152602001600020600401604051602001611c10929190613a7e565b604051602081830303815290604052915050919050565b6000600560008473ffffffffffffffffffffffffffffffffffffffff1673ffffffffffffffffffffffffffffffffffffffff16815260200190815260200160002060008373ffffffffffffffffffffffffffffffffffffffff1673ffffffffffffffffffffffffffffffffffffffff16815260200190815260200160002060009054906101000a900460ff16905092915050565b60007f01ffc9a7000000000000000000000000000000000000000000000000000000007bffffffffffffffffffffffffffffffffffffffffffffffffffffffff1916827bffffffffffffffffffffffffffffffffffffffffffffffffffffffff1916149050919050565b611d2e81612431565b611d6d576040517f08c379a0000000000000000000000000000000000000000000000000000000008152600401611d6490613d88565b60405180910390fd5b50565b600033905090565b816004600083815260200190815260200160002060006101000a81548173ffffffffffffffffffffffffffffffffffffffff021916908373ffffffffffffffffffffffffffffffffffffffff160217905550808273ffffffffffffffffffffffffffffffffffffffff16611deb836113c8565b73ffffffffffffffffffffffffffffffffffffffff167f8c5be1e5ebec7d5bd14f71427d1e84f3dd0314c0f7b2291e5b200ac8c7c3b92560405160405180910390a45050565b611e3c848484611f22565b611e48848484846124da565b611e87576040517f08c379a0000000000000000000000000000000000000000000000000000000008152600401611e7e90613bc8565b60405180910390fd5b50505050565b600080611e99836113c8565b90508073ffffffffffffffffffffffffffffffffffffffff168473ffffffffffffffffffffffffffffffffffffffff161480611edb5750611eda8185611c27565b5b80611f1957508373ffffffffffffffffffffffffffffffffffffffff16611f01846105ce565b73ffffffffffffffffffffffffffffffffffffffff16145b91505092915050565b8273ffffffffffffffffffffffffffffffffffffffff16611f42826113c8565b73ffffffffffffffffffffffffffffffffffffffff1614611f98576040517f08c379a0000000000000000000000000000000000000000000000000000000008152600401611f8f90613be8565b60405180910390fd5b600073ffffffffffffffffffffffffffffffffffffffff168273ffffffffffffffffffffffffffffffffffffffff161415612008576040517f08c379a0000000000000000000000000000000000000000000000000000000008152600401611fff90613c48565b60405180910390fd5b612013838383612671565b61201e600082611d78565b6001600360008573ffffffffffffffffffffffffffffffffffffffff1673ffffffffffffffffffffffffffffffffffffffff168152602001908152602001600020600082825461206e9190614046565b925050819055506001600360008473ffffffffffffffffffffffffffffffffffffffff1673ffffffffffffffffffffffffffffffffffffffff16815260200190815260200160002060008282546120c59190613ff0565b92505081905550816002600083815260200190815260200160002060006101000a81548173ffffffffffffffffffffffffffffffffffffffff021916908373ffffffffffffffffffffffffffffffffffffffff160217905550808273ffffffffffffffffffffffffffffffffffffffff168473ffffffffffffffffffffffffffffffffffffffff167fddf252ad1be2c89b69c2b068fc378daa952ba7f163c4a11628f55a4df523b3ef60405160405180910390a4612184838383612a28565b505050565b6000612194826113c8565b90506121a281600084612671565b6121ad600083611d78565b6001600360008373ffffffffffffffffffffffffffffffffffffffff1673ffffffffffffffffffffffffffffffffffffffff16815260200190815260200160002060008282546121fd9190614046565b925050819055506002600083815260200190815260200160002060006101000a81549073ffffffffffffffffffffffffffffffffffffffff021916905581600073ffffffffffffffffffffffffffffffffffffffff168273ffffffffffffffffffffffffffffffffffffffff167fddf252ad1be2c89b69c2b068fc378daa952ba7f163c4a11628f55a4df523b3ef60405160405180910390a46122a281600084612a28565b5050565b8173ffffffffffffffffffffffffffffffffffffffff168373ffffffffffffffffffffffffffffffffffffffff161415612315576040517f08c379a000000000000000000000000000000000000000000000000000000000815260040161230c90613c68565b60405180910390fd5b80600560008573ffffffffffffffffffffffffffffffffffffffff1673ffffffffffffffffffffffffffffffffffffffff16815260200190815260200160002060008473ffffffffffffffffffffffffffffffffffffffff1673ffffffffffffffffffffffffffffffffffffffff16815260200190815260200160002060006101000a81548160ff0219169083151502179055508173ffffffffffffffffffffffffffffffffffffffff168373ffffffffffffffffffffffffffffffffffffffff167f17307eab39ab6107e8899845ad3d59bd9653f200f220920489ca2b5937696c31836040516124069190613b2b565b60405180910390a3505050565b61242d828260405180602001604052806000815250612a2d565b5050565b60008073ffffffffffffffffffffffffffffffffffffffff166002600084815260200190815260200160002060009054906101000a900473ffffffffffffffffffffffffffffffffffffffff1673ffffffffffffffffffffffffffffffffffffffff1614159050919050565b60606040518060400160405280602081526020017f68747470733a2f2f766f722e696e667572612d697066732e696f2f697066732f815250905090565b60006124fb8473ffffffffffffffffffffffffffffffffffffffff16612a88565b15612664578373ffffffffffffffffffffffffffffffffffffffff1663150b7a02612524611d70565b8786866040518563ffffffff1660e01b81526004016125469493929190613abd565b602060405180830381600087803b15801561256057600080fd5b505af192505050801561259157506040513d601f19601f8201168201806040525081019061258e919061342b565b60015b612614573d80600081146125c1576040519150601f19603f3d011682016040523d82523d6000602084013e6125c6565b606091505b5060008151141561260c576040517f08c379a000000000000000000000000000000000000000000000000000000000815260040161260390613bc8565b60405180910390fd5b805181602001fd5b63150b7a0260e01b7bffffffffffffffffffffffffffffffffffffffffffffffffffffffff1916817bffffffffffffffffffffffffffffffffffffffffffffffffffffffff191614915050612669565b600190505b949350505050565b600073ffffffffffffffffffffffffffffffffffffffff168273ffffffffffffffffffffffffffffffffffffffff161480156126fa5750600860009054906101000a900473ffffffffffffffffffffffffffffffffffffffff1673ffffffffffffffffffffffffffffffffffffffff168373ffffffffffffffffffffffffffffffffffffffff16145b806127f15750600073ffffffffffffffffffffffffffffffffffffffff168273ffffffffffffffffffffffffffffffffffffffff1614801561279d57506006600082815260200190815260200160002060000160019054906101000a900473ffffffffffffffffffffffffffffffffffffffff1673ffffffffffffffffffffffffffffffffffffffff168373ffffffffffffffffffffffffffffffffffffffff16145b80156127f05750600360048111156127b8576127b761423d565b5b6006600083815260200190815260200160002060000160009054906101000a900460ff1660048111156127ee576127ed61423d565b5b145b5b806128d45750600073ffffffffffffffffffffffffffffffffffffffff168373ffffffffffffffffffffffffffffffffffffffff161480156128805750600860009054906101000a900473ffffffffffffffffffffffffffffffffffffffff1673ffffffffffffffffffffffffffffffffffffffff168273ffffffffffffffffffffffffffffffffffffffff16145b80156128d357506001600481111561289b5761289a61423d565b5b6006600083815260200190815260200160002060000160009054906101000a900460ff1660048111156128d1576128d061423d565b5b145b5b806129d95750600860009054906101000a900473ffffffffffffffffffffffffffffffffffffffff1673ffffffffffffffffffffffffffffffffffffffff168273ffffffffffffffffffffffffffffffffffffffff16141580156129855750600860009054906101000a900473ffffffffffffffffffffffffffffffffffffffff1673ffffffffffffffffffffffffffffffffffffffff168373ffffffffffffffffffffffffffffffffffffffff16145b80156129d85750600360048111156129a05761299f61423d565b5b6006600083815260200190815260200160002060000160009054906101000a900460ff1660048111156129d6576129d561423d565b5b145b5b612a18576040517f08c379a0000000000000000000000000000000000000000000000000000000008152600401612a0f90613b68565b60405180910390fd5b612a23838383612aab565b505050565b505050565b612a378383612ab0565b612a4460008484846124da565b612a83576040517f08c379a0000000000000000000000000000000000000000000000000000000008152600401612a7a90613bc8565b60405180910390fd5b505050565b6000808273ffffffffffffffffffffffffffffffffffffffff163b119050919050565b505050565b600073ffffffffffffffffffffffffffffffffffffffff168273ffffffffffffffffffffffffffffffffffffffff161415612b20576040517f08c379a0000000000000000000000000000000000000000000000000000000008152600401612b1790613d28565b60405180910390fd5b612b2981612431565b15612b69576040517f08c379a0000000000000000000000000000000000000000000000000000000008152600401612b6090613c08565b60405180910390fd5b612b7560008383612671565b6001600360008473ffffffffffffffffffffffffffffffffffffffff1673ffffffffffffffffffffffffffffffffffffffff1681526020019081526020016000206000828254612bc59190613ff0565b92505081905550816002600083815260200190815260200160002060006101000a81548173ffffffffffffffffffffffffffffffffffffffff021916908373ffffffffffffffffffffffffffffffffffffffff160217905550808273ffffffffffffffffffffffffffffffffffffffff16600073ffffffffffffffffffffffffffffffffffffffff167fddf252ad1be2c89b69c2b068fc378daa952ba7f163c4a11628f55a4df523b3ef60405160405180910390a4612c8660008383612a28565b5050565b6040518060e0016040528060006004811115612ca957612ca861423d565b5b8152602001600073ffffffffffffffffffffffffffffffffffffffff16815260200160608152602001606081526020016000815260200160608152602001600060ff1681525090565b828054612cfe90614162565b90600052602060002090601f016020900481019282612d205760008555612d67565b82601f10612d3957805160ff1916838001178555612d67565b82800160010185558215612d67579182015b82811115612d66578251825591602001919060010190612d4b565b5b509050612d749190612d78565b5090565b5b80821115612d91576000816000905550600101612d79565b5090565b6000612da8612da384613e68565b613e43565b90508083825260208201905082856020860282011115612dcb57612dca6142fe565b5b60005b85811015612e1957813567ffffffffffffffff811115612df157612df06142f9565b5b808601612dfe8982613093565b85526020850194506020840193505050600181019050612dce565b5050509392505050565b6000612e36612e3184613e94565b613e43565b90508083825260208201905082856020860282011115612e5957612e586142fe565b5b60005b85811015612e895781612e6f88826130c1565b845260208401935060208301925050600181019050612e5c565b5050509392505050565b6000612ea6612ea184613ec0565b613e43565b90508083825260208201905082856020860282011115612ec957612ec86142fe565b5b60005b85811015612ef95781612edf88826130d6565b845260208401935060208301925050600181019050612ecc565b5050509392505050565b6000612f16612f1184613eec565b613e43565b905082815260208101848484011115612f3257612f31614303565b5b612f3d848285614120565b509392505050565b6000612f58612f5384613f1d565b613e43565b905082815260208101848484011115612f7457612f73614303565b5b612f7f848285614120565b509392505050565b600081359050612f96816147ed565b92915050565b600082601f830112612fb157612fb06142f9565b5b8135612fc1848260208601612d95565b91505092915050565b600082601f830112612fdf57612fde6142f9565b5b8135612fef848260208601612e23565b91505092915050565b600082601f83011261300d5761300c6142f9565b5b813561301d848260208601612e93565b91505092915050565b60008135905061303581614804565b92915050565b60008135905061304a8161481b565b92915050565b60008151905061305f8161481b565b92915050565b600082601f83011261307a576130796142f9565b5b813561308a848260208601612f03565b91505092915050565b600082601f8301126130a8576130a76142f9565b5b81356130b8848260208601612f45565b91505092915050565b6000813590506130d081614832565b92915050565b6000813590506130e581614849565b92915050565b6000602082840312156131015761310061430d565b5b600061310f84828501612f87565b91505092915050565b6000806040838503121561312f5761312e61430d565b5b600061313d85828601612f87565b925050602061314e85828601612f87565b9150509250929050565b6000806000606084860312156131715761317061430d565b5b600061317f86828701612f87565b935050602061319086828701612f87565b92505060406131a1868287016130c1565b9150509250925092565b600080600080608085870312156131c5576131c461430d565b5b60006131d387828801612f87565b94505060206131e487828801612f87565b93505060406131f5878288016130c1565b925050606085013567ffffffffffffffff81111561321657613215614308565b5b61322287828801613065565b91505092959194509250565b600080604083850312156132455761324461430d565b5b600061325385828601612f87565b925050602061326485828601613026565b9150509250929050565b600080604083850312156132855761328461430d565b5b600061329385828601612f87565b92505060206132a4858286016130c1565b9150509250929050565b600080600080600060a086880312156132ca576132c961430d565b5b600086013567ffffffffffffffff8111156132e8576132e7614308565b5b6132f488828901612f9c565b955050602086013567ffffffffffffffff81111561331557613314614308565b5b61332188828901612f9c565b945050604086013567ffffffffffffffff81111561334257613341614308565b5b61334e88828901612fca565b935050606086013567ffffffffffffffff81111561336f5761336e614308565b5b61337b88828901612f9c565b925050608086013567ffffffffffffffff81111561339c5761339b614308565b5b6133a888828901612ff8565b9150509295509295909350565b6000602082840312156133cb576133ca61430d565b5b600082013567ffffffffffffffff8111156133e9576133e8614308565b5b6133f584828501612fca565b91505092915050565b6000602082840312156134145761341361430d565b5b60006134228482850161303b565b91505092915050565b6000602082840312156134415761344061430d565b5b600061344f84828501613050565b91505092915050565b60006020828403121561346e5761346d61430d565b5b600061347c848285016130c1565b91505092915050565b600061349183836139a7565b905092915050565b6134a28161407a565b82525050565b6134b18161407a565b82525050565b60006134c282613f73565b6134cc8185613fa1565b9350836020820285016134de85613f4e565b8060005b8581101561351a57848403895281516134fb8582613485565b945061350683613f94565b925060208a019950506001810190506134e2565b50829750879550505050505092915050565b6135358161408c565b82525050565b600061354682613f7e565b6135508185613fb2565b935061356081856020860161412f565b61356981614312565b840191505092915050565b61357d8161410e565b82525050565b600061358e82613f89565b6135988185613fc3565b93506135a881856020860161412f565b6135b181614312565b840191505092915050565b60006135c782613f89565b6135d18185613fd4565b93506135e181856020860161412f565b6135ea81614312565b840191505092915050565b600061360082613f89565b61360a8185613fe5565b935061361a81856020860161412f565b80840191505092915050565b6000815461363381614162565b61363d8186613fe5565b9450600182166000811461365857600181146136695761369c565b60ff1983168652818601935061369c565b61367285613f5e565b60005b8381101561369457815481890152600182019150602081019050613675565b838801955050505b50505092915050565b60006136b2601083613fd4565b91506136bd82614323565b602082019050919050565b60006136d5601983613fd4565b91506136e08261434c565b602082019050919050565b60006136f8601f83613fd4565b915061370382614375565b602082019050919050565b600061371b603283613fd4565b91506137268261439e565b604082019050919050565b600061373e602583613fd4565b9150613749826143ed565b604082019050919050565b6000613761601c83613fd4565b915061376c8261443c565b602082019050919050565b6000613784600c83613fd4565b915061378f82614465565b602082019050919050565b60006137a7602483613fd4565b91506137b28261448e565b604082019050919050565b60006137ca601983613fd4565b91506137d5826144dd565b602082019050919050565b60006137ed601c83613fd4565b91506137f882614506565b602082019050919050565b6000613810601f83613fd4565b915061381b8261452f565b602082019050919050565b6000613833602983613fd4565b915061383e82614558565b604082019050919050565b6000613856601e83613fd4565b9150613861826145a7565b602082019050919050565b6000613879603e83613fd4565b9150613884826145d0565b604082019050919050565b600061389c602083613fd4565b91506138a78261461f565b602082019050919050565b60006138bf601f83613fd4565b91506138ca82614648565b602082019050919050565b60006138e2601f83613fd4565b91506138ed82614671565b602082019050919050565b6000613905601883613fd4565b91506139108261469a565b602082019050919050565b6000613928602183613fd4565b9150613933826146c3565b604082019050919050565b600061394b601f83613fd4565b915061395682614712565b602082019050919050565b600061396e602a83613fd4565b91506139798261473b565b604082019050919050565b6000613991602e83613fd4565b915061399c8261478a565b604082019050919050565b600060e0830160008301516139bf6000860182613574565b5060208301516139d26020860182613499565b50604083015184820360408601526139ea8282613583565b91505060608301518482036060860152613a048282613583565b9150506080830151613a196080860182613a51565b5060a083015184820360a0860152613a318282613583565b91505060c0830151613a4660c0860182613a6f565b508091505092915050565b613a5a816140f7565b82525050565b613a69816140f7565b82525050565b613a7881614101565b82525050565b6000613a8a82856135f5565b9150613a968284613626565b91508190509392505050565b6000602082019050613ab760008301846134a8565b92915050565b6000608082019050613ad260008301876134a8565b613adf60208301866134a8565b613aec6040830185613a60565b8181036060830152613afe818461353b565b905095945050505050565b60006020820190508181036000830152613b2381846134b7565b905092915050565b6000602082019050613b40600083018461352c565b92915050565b60006020820190508181036000830152613b6081846135bc565b905092915050565b60006020820190508181036000830152613b81816136a5565b9050919050565b60006020820190508181036000830152613ba1816136c8565b9050919050565b60006020820190508181036000830152613bc1816136eb565b9050919050565b60006020820190508181036000830152613be18161370e565b9050919050565b60006020820190508181036000830152613c0181613731565b9050919050565b60006020820190508181036000830152613c2181613754565b9050919050565b60006020820190508181036000830152613c4181613777565b9050919050565b60006020820190508181036000830152613c618161379a565b9050919050565b60006020820190508181036000830152613c81816137bd565b9050919050565b60006020820190508181036000830152613ca1816137e0565b9050919050565b60006020820190508181036000830152613cc181613803565b9050919050565b60006020820190508181036000830152613ce181613826565b9050919050565b60006020820190508181036000830152613d0181613849565b9050919050565b60006020820190508181036000830152613d218161386c565b9050919050565b60006020820190508181036000830152613d418161388f565b9050919050565b60006020820190508181036000830152613d61816138b2565b9050919050565b60006020820190508181036000830152613d81816138d5565b9050919050565b60006020820190508181036000830152613da1816138f8565b9050919050565b60006020820190508181036000830152613dc18161391b565b9050919050565b60006020820190508181036000830152613de18161393e565b9050919050565b60006020820190508181036000830152613e0181613961565b9050919050565b60006020820190508181036000830152613e2181613984565b9050919050565b6000602082019050613e3d6000830184613a60565b92915050565b6000613e4d613e5e565b9050613e598282614194565b919050565b6000604051905090565b600067ffffffffffffffff821115613e8357613e826142ca565b5b602082029050602081019050919050565b600067ffffffffffffffff821115613eaf57613eae6142ca565b5b602082029050602081019050919050565b600067ffffffffffffffff821115613edb57613eda6142ca565b5b602082029050602081019050919050565b600067ffffffffffffffff821115613f0757613f066142ca565b5b613f1082614312565b9050602081019050919050565b600067ffffffffffffffff821115613f3857613f376142ca565b5b613f4182614312565b9050602081019050919050565b6000819050602082019050919050565b60008190508160005260206000209050919050565b600081519050919050565b600081519050919050565b600081519050919050565b6000602082019050919050565b600082825260208201905092915050565b600082825260208201905092915050565b600082825260208201905092915050565b600082825260208201905092915050565b600081905092915050565b6000613ffb826140f7565b9150614006836140f7565b9250827fffffffffffffffffffffffffffffffffffffffffffffffffffffffffffffffff0382111561403b5761403a61420e565b5b828201905092915050565b6000614051826140f7565b915061405c836140f7565b92508282101561406f5761406e61420e565b5b828203905092915050565b6000614085826140d7565b9050919050565b60008115159050919050565b60007fffffffff0000000000000000000000000000000000000000000000000000000082169050919050565b60008190506140d2826147d9565b919050565b600073ffffffffffffffffffffffffffffffffffffffff82169050919050565b6000819050919050565b600060ff82169050919050565b6000614119826140c4565b9050919050565b82818337600083830152505050565b60005b8381101561414d578082015181840152602081019050614132565b8381111561415c576000848401525b50505050565b6000600282049050600182168061417a57607f821691505b6020821081141561418e5761418d61426c565b5b50919050565b61419d82614312565b810181811067ffffffffffffffff821117156141bc576141bb6142ca565b5b80604052505050565b60006141d0826140f7565b91507fffffffffffffffffffffffffffffffffffffffffffffffffffffffffffffffff8214156142035761420261420e565b5b600182019050919050565b7f4e487b7100000000000000000000000000000000000000000000000000000000600052601160045260246000fd5b7f4e487b7100000000000000000000000000000000000000000000000000000000600052602160045260246000fd5b7f4e487b7100000000000000000000000000000000000000000000000000000000600052602260045260246000fd5b7f4e487b7100000000000000000000000000000000000000000000000000000000600052603260045260246000fd5b7f4e487b7100000000000000000000000000000000000000000000000000000000600052604160045260246000fd5b600080fd5b600080fd5b600080fd5b600080fd5b600080fd5b6000601f19601f8301169050919050565b7f496e76616c6964207472616e7366657200000000000000000000000000000000600082015250565b7f426164676520697320696e20696e76616c696420737461746500000000000000600082015250565b7f55524920717565727920666f72206e6f6e6578697374656e7420746f6b656e00600082015250565b7f4552433732313a207472616e7366657220746f206e6f6e20455243373231526560008201527f63656976657220696d706c656d656e7465720000000000000000000000000000602082015250565b7f4552433732313a207472616e736665722066726f6d20696e636f72726563742060008201527f6f776e6572000000000000000000000000000000000000000000000000000000602082015250565b7f4552433732313a20746f6b656e20616c7265616479206d696e74656400000000600082015250565b7f496e7661696420696e7075740000000000000000000000000000000000000000600082015250565b7f4552433732313a207472616e7366657220746f20746865207a65726f2061646460008201527f7265737300000000000000000000000000000000000000000000000000000000602082015250565b7f4552433732313a20617070726f766520746f2063616c6c657200000000000000600082015250565b7f4f6e6c79206f7267616e697a65722063616e2061646420626164676500000000600082015250565b7f43616e6e6f7420617761726420626164676520746f206f7267616e697a657200600082015250565b7f4552433732313a2061646472657373207a65726f206973206e6f74206120766160008201527f6c6964206f776e65720000000000000000000000000000000000000000000000602082015250565b7f4f6e6c79206f7267616e697a65722063616e2061776172642062616467650000600082015250565b7f4552433732313a20617070726f76652063616c6c6572206973206e6f7420746f60008201527f6b656e206f776e6572206e6f7220617070726f76656420666f7220616c6c0000602082015250565b7f4552433732313a206d696e7420746f20746865207a65726f2061646472657373600082015250565b7f4f6e6c79206f7267616e697a65722063616e2072656d6f766520626164676500600082015250565b7f4f6e6c7920726563697069656e742063616e2061636365707420626164676500600082015250565b7f4552433732313a20696e76616c696420746f6b656e2049440000000000000000600082015250565b7f4552433732313a20617070726f76616c20746f2063757272656e74206f776e6560008201527f7200000000000000000000000000000000000000000000000000000000000000602082015250565b7f4f6e6c7920726563697069656e742063616e2072656a65637420626164676500600082015250565b7f4f6e6c79206f7267616e697a6572206f7220726563657069656e742063616e2060008201527f6275726e20626164676500000000000000000000000000000000000000000000602082015250565b7f4552433732313a2063616c6c6572206973206e6f7420746f6b656e206f776e6560008201527f72206e6f7220617070726f766564000000000000000000000000000000000000602082015250565b600581106147ea576147e961423d565b5b50565b6147f68161407a565b811461480157600080fd5b50565b61480d8161408c565b811461481857600080fd5b50565b61482481614098565b811461482f57600080fd5b50565b61483b816140f7565b811461484657600080fd5b50565b61485281614101565b811461485d57600080fd5b5056fea2646970667358221220973af05f2a7363459a5ed600bc3e2b820f5e544b7db03079a4a2794d6785ce1164736f6c63430008070033",
  "linkReferences": {},
  "deployedLinkReferences": {}
}