{
  "_format": "hh-sol-artifact-1",
  "contractName": "VOREvent",
  "sourceName": "contracts/VOREvent.sol",
  "abi": [
    {
      "inputs": [
        {
          "internalType": "string",
          "name": "_name",
          "type": "string"
        },
        {
          "internalType": "string",
          "name": "_description",
          "type": "string"
        },
        {
          "internalType": "address",
          "name": "_issuer",
          "type": "address"
        }
      ],
      "stateMutability": "nonpayable",
      "type": "constructor"
    },
    {
      "anonymous": false,
      "inputs": [
        {
          "indexed": true,
          "internalType": "address",
          "name": "owner",
          "type": "address"
        },
        {
          "indexed": true,
          "internalType": "address",
          "name": "approved",
          "type": "address"
        },
        {
          "indexed": true,
          "internalType": "uint256",
          "name": "tokenId",
          "type": "uint256"
        }
      ],
      "name": "Approval",
      "type": "event"
    },
    {
      "anonymous": false,
      "inputs": [
        {
          "indexed": true,
          "internalType": "address",
          "name": "owner",
          "type": "address"
        },
        {
          "indexed": true,
          "internalType": "address",
          "name": "operator",
          "type": "address"
        },
        {
          "indexed": false,
          "internalType": "bool",
          "name": "approved",
          "type": "bool"
        }
      ],
      "name": "ApprovalForAll",
      "type": "event"
    },
    {
      "anonymous": false,
      "inputs": [
        {
          "indexed": true,
          "internalType": "address",
          "name": "from",
          "type": "address"
        },
        {
          "indexed": true,
          "internalType": "address",
          "name": "to",
          "type": "address"
        },
        {
          "indexed": true,
          "internalType": "uint256",
          "name": "tokenId",
          "type": "uint256"
        }
      ],
      "name": "Transfer",
      "type": "event"
    },
    {
      "inputs": [
        {
          "internalType": "uint256",
          "name": "_tokenId",
          "type": "uint256"
        }
      ],
      "name": "accept",
      "outputs": [],
      "stateMutability": "nonpayable",
      "type": "function"
    },
    {
      "inputs": [
        {
          "internalType": "string[]",
          "name": "_names",
          "type": "string[]"
        },
        {
          "internalType": "string[]",
          "name": "_descriptions",
          "type": "string[]"
        },
        {
          "internalType": "uint256[]",
          "name": "_groups",
          "type": "uint256[]"
        }
      ],
      "name": "addBadges",
      "outputs": [],
      "stateMutability": "nonpayable",
      "type": "function"
    },
    {
      "inputs": [
        {
          "internalType": "address",
          "name": "to",
          "type": "address"
        },
        {
          "internalType": "uint256",
          "name": "tokenId",
          "type": "uint256"
        }
      ],
      "name": "approve",
      "outputs": [],
      "stateMutability": "nonpayable",
      "type": "function"
    },
    {
      "inputs": [
        {
          "internalType": "address",
          "name": "_to",
          "type": "address"
        },
        {
          "internalType": "uint256",
          "name": "_tokenId",
          "type": "uint256"
        }
      ],
      "name": "award",
      "outputs": [],
      "stateMutability": "nonpayable",
      "type": "function"
    },
    {
      "inputs": [
        {
          "internalType": "address",
          "name": "owner",
          "type": "address"
        }
      ],
      "name": "balanceOf",
      "outputs": [
        {
          "internalType": "uint256",
          "name": "",
          "type": "uint256"
        }
      ],
      "stateMutability": "view",
      "type": "function"
    },
    {
      "inputs": [
        {
          "internalType": "uint256",
          "name": "_tokenId",
          "type": "uint256"
        }
      ],
      "name": "burn",
      "outputs": [],
      "stateMutability": "nonpayable",
      "type": "function"
    },
    {
      "inputs": [],
      "name": "description",
      "outputs": [
        {
          "internalType": "string",
          "name": "",
          "type": "string"
        }
      ],
      "stateMutability": "view",
      "type": "function"
    },
    {
      "inputs": [
        {
          "internalType": "uint256",
          "name": "tokenId",
          "type": "uint256"
        }
      ],
      "name": "getApproved",
      "outputs": [
        {
          "internalType": "address",
          "name": "",
          "type": "address"
        }
      ],
      "stateMutability": "view",
      "type": "function"
    },
    {
      "inputs": [],
      "name": "getBadges",
      "outputs": [
        {
          "components": [
            {
              "internalType": "enum VOREvent.BadgeState",
              "name": "state",
              "type": "uint8"
            },
            {
              "internalType": "address",
              "name": "recipient",
              "type": "address"
            },
            {
              "internalType": "string",
              "name": "name",
              "type": "string"
            },
            {
              "internalType": "string",
              "name": "description",
              "type": "string"
            },
            {
              "internalType": "uint256",
              "name": "group",
              "type": "uint256"
            }
          ],
          "internalType": "struct VOREvent.Badge[]",
          "name": "",
          "type": "tuple[]"
        }
      ],
      "stateMutability": "view",
      "type": "function"
    },
    {
      "inputs": [
        {
          "internalType": "address",
          "name": "owner",
          "type": "address"
        },
        {
          "internalType": "address",
          "name": "operator",
          "type": "address"
        }
      ],
      "name": "isApprovedForAll",
      "outputs": [
        {
          "internalType": "bool",
          "name": "",
          "type": "bool"
        }
      ],
      "stateMutability": "view",
      "type": "function"
    },
    {
      "inputs": [],
      "name": "issuer",
      "outputs": [
        {
          "internalType": "address",
          "name": "",
          "type": "address"
        }
      ],
      "stateMutability": "view",
      "type": "function"
    },
    {
      "inputs": [],
      "name": "name",
      "outputs": [
        {
          "internalType": "string",
          "name": "",
          "type": "string"
        }
      ],
      "stateMutability": "view",
      "type": "function"
    },
    {
      "inputs": [
        {
          "internalType": "uint256",
          "name": "tokenId",
          "type": "uint256"
        }
      ],
      "name": "ownerOf",
      "outputs": [
        {
          "internalType": "address",
          "name": "",
          "type": "address"
        }
      ],
      "stateMutability": "view",
      "type": "function"
    },
    {
      "inputs": [
        {
          "internalType": "uint256",
          "name": "_tokenId",
          "type": "uint256"
        }
      ],
      "name": "reject",
      "outputs": [],
      "stateMutability": "nonpayable",
      "type": "function"
    },
    {
      "inputs": [
        {
          "internalType": "uint256[]",
          "name": "_tokenIds",
          "type": "uint256[]"
        }
      ],
      "name": "removeBadges",
      "outputs": [],
      "stateMutability": "nonpayable",
      "type": "function"
    },
    {
      "inputs": [
        {
          "internalType": "address",
          "name": "from",
          "type": "address"
        },
        {
          "internalType": "address",
          "name": "to",
          "type": "address"
        },
        {
          "internalType": "uint256",
          "name": "tokenId",
          "type": "uint256"
        }
      ],
      "name": "safeTransferFrom",
      "outputs": [],
      "stateMutability": "nonpayable",
      "type": "function"
    },
    {
      "inputs": [
        {
          "internalType": "address",
          "name": "from",
          "type": "address"
        },
        {
          "internalType": "address",
          "name": "to",
          "type": "address"
        },
        {
          "internalType": "uint256",
          "name": "tokenId",
          "type": "uint256"
        },
        {
          "internalType": "bytes",
          "name": "data",
          "type": "bytes"
        }
      ],
      "name": "safeTransferFrom",
      "outputs": [],
      "stateMutability": "nonpayable",
      "type": "function"
    },
    {
      "inputs": [
        {
          "internalType": "address",
          "name": "operator",
          "type": "address"
        },
        {
          "internalType": "bool",
          "name": "approved",
          "type": "bool"
        }
      ],
      "name": "setApprovalForAll",
      "outputs": [],
      "stateMutability": "nonpayable",
      "type": "function"
    },
    {
      "inputs": [
        {
          "internalType": "bytes4",
          "name": "interfaceId",
          "type": "bytes4"
        }
      ],
      "name": "supportsInterface",
      "outputs": [
        {
          "internalType": "bool",
          "name": "",
          "type": "bool"
        }
      ],
      "stateMutability": "view",
      "type": "function"
    },
    {
      "inputs": [],
      "name": "symbol",
      "outputs": [
        {
          "internalType": "string",
          "name": "",
          "type": "string"
        }
      ],
      "stateMutability": "view",
      "type": "function"
    },
    {
      "inputs": [],
      "name": "tokenIdCounter",
      "outputs": [
        {
          "internalType": "uint256",
          "name": "",
          "type": "uint256"
        }
      ],
      "stateMutability": "view",
      "type": "function"
    },
    {
      "inputs": [
        {
          "internalType": "uint256",
          "name": "_tokenId",
          "type": "uint256"
        }
      ],
      "name": "tokenURI",
      "outputs": [
        {
          "internalType": "string",
          "name": "",
          "type": "string"
        }
      ],
      "stateMutability": "view",
      "type": "function"
    },
    {
      "inputs": [
        {
          "internalType": "address",
          "name": "from",
          "type": "address"
        },
        {
          "internalType": "address",
          "name": "to",
          "type": "address"
        },
        {
          "internalType": "uint256",
          "name": "tokenId",
          "type": "uint256"
        }
      ],
      "name": "transferFrom",
      "outputs": [],
      "stateMutability": "nonpayable",
      "type": "function"
    }
  ],
  "bytecode": "0x60806040523480156200001157600080fd5b5060405162004b1938038062004b19833981810160405281019062000037919062000252565b826040518060400160405280600481526020017f564f5242000000000000000000000000000000000000000000000000000000008152508160009080519060200190620000869291906200010d565b5080600190805190602001906200009f9291906200010d565b5050508160079080519060200190620000ba9291906200010d565b5080600860006101000a81548173ffffffffffffffffffffffffffffffffffffffff021916908373ffffffffffffffffffffffffffffffffffffffff1602179055506001600981905550505050620004be565b8280546200011b90620003b5565b90600052602060002090601f0160209004810192826200013f57600085556200018b565b82601f106200015a57805160ff19168380011785556200018b565b828001600101855582156200018b579182015b828111156200018a5782518255916020019190600101906200016d565b5b5090506200019a91906200019e565b5090565b5b80821115620001b95760008160009055506001016200019f565b5090565b6000620001d4620001ce8462000315565b620002ec565b905082815260208101848484011115620001f357620001f262000484565b5b620002008482856200037f565b509392505050565b6000815190506200021981620004a4565b92915050565b600082601f8301126200023757620002366200047f565b5b815162000249848260208601620001bd565b91505092915050565b6000806000606084860312156200026e576200026d6200048e565b5b600084015167ffffffffffffffff8111156200028f576200028e62000489565b5b6200029d868287016200021f565b935050602084015167ffffffffffffffff811115620002c157620002c062000489565b5b620002cf868287016200021f565b9250506040620002e28682870162000208565b9150509250925092565b6000620002f86200030b565b9050620003068282620003eb565b919050565b6000604051905090565b600067ffffffffffffffff82111562000333576200033262000450565b5b6200033e8262000493565b9050602081019050919050565b600062000358826200035f565b9050919050565b600073ffffffffffffffffffffffffffffffffffffffff82169050919050565b60005b838110156200039f57808201518184015260208101905062000382565b83811115620003af576000848401525b50505050565b60006002820490506001821680620003ce57607f821691505b60208210811415620003e557620003e462000421565b5b50919050565b620003f68262000493565b810181811067ffffffffffffffff8211171562000418576200041762000450565b5b80604052505050565b7f4e487b7100000000000000000000000000000000000000000000000000000000600052602260045260246000fd5b7f4e487b7100000000000000000000000000000000000000000000000000000000600052604160045260246000fd5b600080fd5b600080fd5b600080fd5b600080fd5b6000601f19601f8301169050919050565b620004af816200034b565b8114620004bb57600080fd5b50565b61464b80620004ce6000396000f3fe608060405234801561001057600080fd5b506004361061014d5760003560e01c80634ce30238116100c357806398bdf6f51161007c57806398bdf6f514610388578063a22cb465146103a6578063b88d4fde146103c2578063b8adaa11146103de578063c87b56dd146103fa578063e985e9c51461042a5761014d565b80634ce30238146102b45780635d8a776e146102d05780636352211e146102ec57806370a082311461031c5780637284e4161461034c57806395d89b411461036a5761014d565b80631d143848116101155780631d1438481461020857806323b872dd1461022657806342842e0e1461024257806342966c681461025e57806342a04fea1461027a5780634cb84830146102985761014d565b806301ffc9a71461015257806306fdde0314610182578063081812fc146101a0578063095ea7b3146101d057806319b05f49146101ec575b600080fd5b61016c60048036038101906101679190613242565b61045a565b60405161017991906138b4565b60405180910390f35b61018a61053c565b60405161019791906138cf565b60405180910390f35b6101ba60048036038101906101b5919061329c565b6105ce565b6040516101c7919061382b565b60405180910390f35b6101ea60048036038101906101e59190613112565b610614565b005b6102066004803603810190610201919061329c565b61072c565b005b6102106108d9565b60405161021d919061382b565b60405180910390f35b610240600480360381019061023b9190612ffc565b6108ff565b005b61025c60048036038101906102579190612ffc565b61095f565b005b6102786004803603810190610273919061329c565b61097f565b005b610282610bec565b60405161028f9190613892565b60405180910390f35b6102b260048036038101906102ad91906131f9565b610e6b565b005b6102ce60048036038101906102c99190613152565b611036565b005b6102ea60048036038101906102e59190613112565b6112eb565b005b6103066004803603810190610301919061329c565b61152e565b604051610313919061382b565b60405180910390f35b61033660048036038101906103319190612f8f565b6115e0565b6040516103439190613bb1565b60405180910390f35b610354611698565b60405161036191906138cf565b60405180910390f35b610372611726565b60405161037f91906138cf565b60405180910390f35b6103906117b8565b60405161039d9190613bb1565b60405180910390f35b6103c060048036038101906103bb91906130d2565b6117be565b005b6103dc60048036038101906103d7919061304f565b6117d4565b005b6103f860048036038101906103f3919061329c565b611836565b005b610414600480360381019061040f919061329c565b6119a6565b60405161042191906138cf565b60405180910390f35b610444600480360381019061043f9190612fbc565b611a2e565b60405161045191906138b4565b60405180910390f35b60007f80ac58cd000000000000000000000000000000000000000000000000000000007bffffffffffffffffffffffffffffffffffffffffffffffffffffffff1916827bffffffffffffffffffffffffffffffffffffffffffffffffffffffff1916148061052557507f5b5e139f000000000000000000000000000000000000000000000000000000007bffffffffffffffffffffffffffffffffffffffffffffffffffffffff1916827bffffffffffffffffffffffffffffffffffffffffffffffffffffffff1916145b80610535575061053482611ac2565b5b9050919050565b60606000805461054b90613ece565b80601f016020809104026020016040519081016040528092919081815260200182805461057790613ece565b80156105c45780601f10610599576101008083540402835291602001916105c4565b820191906000526020600020905b8154815290600101906020018083116105a757829003601f168201915b5050505050905090565b60006105d982611b2c565b6004600083815260200190815260200160002060009054906101000a900473ffffffffffffffffffffffffffffffffffffffff169050919050565b600061061f8261152e565b90508073ffffffffffffffffffffffffffffffffffffffff168373ffffffffffffffffffffffffffffffffffffffff161415610690576040517f08c379a000000000000000000000000000000000000000000000000000000000815260040161068790613b31565b60405180910390fd5b8073ffffffffffffffffffffffffffffffffffffffff166106af611b77565b73ffffffffffffffffffffffffffffffffffffffff1614806106de57506106dd816106d8611b77565b611a2e565b5b61071d576040517f08c379a000000000000000000000000000000000000000000000000000000000815260040161071490613a91565b60405180910390fd5b6107278383611b7f565b505050565b6006600082815260200190815260200160002060000160019054906101000a900473ffffffffffffffffffffffffffffffffffffffff1673ffffffffffffffffffffffffffffffffffffffff163373ffffffffffffffffffffffffffffffffffffffff16146107d0576040517f08c379a00000000000000000000000000000000000000000000000000000000081526004016107c790613af1565b60405180910390fd5b600260048111156107e4576107e3614009565b5b6006600083815260200190815260200160002060000160009054906101000a900460ff16600481111561081a57610819614009565b5b1461085a576040517f08c379a000000000000000000000000000000000000000000000000000000000815260040161085190613911565b60405180910390fd5b60036006600083815260200190815260200160002060000160006101000a81548160ff0219169083600481111561089457610893614009565b5b02179055506108d6600860009054906101000a900473ffffffffffffffffffffffffffffffffffffffff16338360405180602001604052806000815250611c38565b50565b600860009054906101000a900473ffffffffffffffffffffffffffffffffffffffff1681565b61091061090a611b77565b82611c94565b61094f576040517f08c379a000000000000000000000000000000000000000000000000000000000815260040161094690613b91565b60405180910390fd5b61095a838383611d29565b505050565b61097a838383604051806020016040528060008152506117d4565b505050565b6003600481111561099357610992614009565b5b6006600083815260200190815260200160002060000160009054906101000a900460ff1660048111156109c9576109c8614009565b5b14610a09576040517f08c379a0000000000000000000000000000000000000000000000000000000008152600401610a0090613911565b60405180910390fd5b6006600082815260200190815260200160002060000160019054906101000a900473ffffffffffffffffffffffffffffffffffffffff1673ffffffffffffffffffffffffffffffffffffffff163373ffffffffffffffffffffffffffffffffffffffff161480610ac65750600860009054906101000a900473ffffffffffffffffffffffffffffffffffffffff1673ffffffffffffffffffffffffffffffffffffffff163373ffffffffffffffffffffffffffffffffffffffff16145b610b05576040517f08c379a0000000000000000000000000000000000000000000000000000000008152600401610afc90613b71565b60405180910390fd5b610b0e81611f90565b610b16612bf2565b806006600084815260200190815260200160002060008201518160000160006101000a81548160ff02191690836004811115610b5557610b54614009565b5b021790555060208201518160000160016101000a81548173ffffffffffffffffffffffffffffffffffffffff021916908373ffffffffffffffffffffffffffffffffffffffff1602179055506040820151816001019080519060200190610bbd929190612c49565b506060820151816002019080519060200190610bda929190612c49565b50608082015181600301559050505050565b6060600060095467ffffffffffffffff811115610c0c57610c0b614096565b5b604051908082528060200260200182016040528015610c4557816020015b610c32612bf2565b815260200190600190039081610c2a5790505b50905060005b600954811015610e6357600660008281526020019081526020016000206040518060a00160405290816000820160009054906101000a900460ff166004811115610c9857610c97614009565b5b6004811115610caa57610ca9614009565b5b81526020016000820160019054906101000a900473ffffffffffffffffffffffffffffffffffffffff1673ffffffffffffffffffffffffffffffffffffffff1673ffffffffffffffffffffffffffffffffffffffff168152602001600182018054610d1490613ece565b80601f0160208091040260200160405190810160405280929190818152602001828054610d4090613ece565b8015610d8d5780601f10610d6257610100808354040283529160200191610d8d565b820191906000526020600020905b815481529060010190602001808311610d7057829003601f168201915b50505050508152602001600282018054610da690613ece565b80601f0160208091040260200160405190810160405280929190818152602001828054610dd290613ece565b8015610e1f5780601f10610df457610100808354040283529160200191610e1f565b820191906000526020600020905b815481529060010190602001808311610e0257829003601f168201915b50505050508152602001600382015481525050828281518110610e4557610e44614067565b5b60200260200101819052508080610e5b90613f31565b915050610c4b565b508091505090565b600860009054906101000a900473ffffffffffffffffffffffffffffffffffffffff1673ffffffffffffffffffffffffffffffffffffffff163373ffffffffffffffffffffffffffffffffffffffff1614610efb576040517f08c379a0000000000000000000000000000000000000000000000000000000008152600401610ef290613ad1565b60405180910390fd5b60005b815181101561103257610f2a828281518110610f1d57610f1c614067565b5b6020026020010151611f90565b610f32612bf2565b8060066000858581518110610f4a57610f49614067565b5b6020026020010151815260200190815260200160002060008201518160000160006101000a81548160ff02191690836004811115610f8b57610f8a614009565b5b021790555060208201518160000160016101000a81548173ffffffffffffffffffffffffffffffffffffffff021916908373ffffffffffffffffffffffffffffffffffffffff1602179055506040820151816001019080519060200190610ff3929190612c49565b506060820151816002019080519060200190611010929190612c49565b506080820151816003015590505050808061102a90613f31565b915050610efe565b5050565b600860009054906101000a900473ffffffffffffffffffffffffffffffffffffffff1673ffffffffffffffffffffffffffffffffffffffff163373ffffffffffffffffffffffffffffffffffffffff16146110c6576040517f08c379a00000000000000000000000000000000000000000000000000000000081526004016110bd90613a11565b60405180910390fd5b815183511480156110d8575080518351145b611117576040517f08c379a000000000000000000000000000000000000000000000000000000000815260040161110e906139b1565b60405180910390fd5b60005b83518110156112d05760006040518060a001604052806001600481111561114457611143614009565b5b8152602001600073ffffffffffffffffffffffffffffffffffffffff16815260200186848151811061117957611178614067565b5b6020026020010151815260200185848151811061119957611198614067565b5b602002602001015181526020018484815181106111b9576111b8614067565b5b602002602001015181525090508060066000846009546111d99190613d38565b815260200190815260200160002060008201518160000160006101000a81548160ff0219169083600481111561121257611211614009565b5b021790555060208201518160000160016101000a81548173ffffffffffffffffffffffffffffffffffffffff021916908373ffffffffffffffffffffffffffffffffffffffff160217905550604082015181600101908051906020019061127a929190612c49565b506060820151816002019080519060200190611297929190612c49565b50608082015181600301559050506112bc33836009546112b79190613d38565b6120ad565b5080806112c890613f31565b91505061111a565b5082516009546112e09190613d38565b600981905550505050565b600860009054906101000a900473ffffffffffffffffffffffffffffffffffffffff1673ffffffffffffffffffffffffffffffffffffffff163373ffffffffffffffffffffffffffffffffffffffff161461137b576040517f08c379a000000000000000000000000000000000000000000000000000000000815260040161137290613a71565b60405180910390fd5b600860009054906101000a900473ffffffffffffffffffffffffffffffffffffffff1673ffffffffffffffffffffffffffffffffffffffff168273ffffffffffffffffffffffffffffffffffffffff16141561140c576040517f08c379a000000000000000000000000000000000000000000000000000000000815260040161140390613a31565b60405180910390fd5b600160048111156114205761141f614009565b5b6006600083815260200190815260200160002060000160009054906101000a900460ff16600481111561145657611455614009565b5b14611496576040517f08c379a000000000000000000000000000000000000000000000000000000000815260040161148d90613911565b60405180910390fd5b816006600083815260200190815260200160002060000160016101000a81548173ffffffffffffffffffffffffffffffffffffffff021916908373ffffffffffffffffffffffffffffffffffffffff16021790555060026006600083815260200190815260200160002060000160006101000a81548160ff0219169083600481111561152557611524614009565b5b02179055505050565b6000806002600084815260200190815260200160002060009054906101000a900473ffffffffffffffffffffffffffffffffffffffff169050600073ffffffffffffffffffffffffffffffffffffffff168173ffffffffffffffffffffffffffffffffffffffff1614156115d7576040517f08c379a00000000000000000000000000000000000000000000000000000000081526004016115ce90613b11565b60405180910390fd5b80915050919050565b60008073ffffffffffffffffffffffffffffffffffffffff168273ffffffffffffffffffffffffffffffffffffffff161415611651576040517f08c379a000000000000000000000000000000000000000000000000000000000815260040161164890613a51565b60405180910390fd5b600360008373ffffffffffffffffffffffffffffffffffffffff1673ffffffffffffffffffffffffffffffffffffffff168152602001908152602001600020549050919050565b600780546116a590613ece565b80601f01602080910402602001604051908101604052809291908181526020018280546116d190613ece565b801561171e5780601f106116f35761010080835404028352916020019161171e565b820191906000526020600020905b81548152906001019060200180831161170157829003601f168201915b505050505081565b60606001805461173590613ece565b80601f016020809104026020016040519081016040528092919081815260200182805461176190613ece565b80156117ae5780601f10611783576101008083540402835291602001916117ae565b820191906000526020600020905b81548152906001019060200180831161179157829003601f168201915b5050505050905090565b60095481565b6117d06117c9611b77565b83836120cb565b5050565b6117e56117df611b77565b83611c94565b611824576040517f08c379a000000000000000000000000000000000000000000000000000000000815260040161181b90613b91565b60405180910390fd5b61183084848484611c38565b50505050565b6006600082815260200190815260200160002060000160019054906101000a900473ffffffffffffffffffffffffffffffffffffffff1673ffffffffffffffffffffffffffffffffffffffff163373ffffffffffffffffffffffffffffffffffffffff16146118da576040517f08c379a00000000000000000000000000000000000000000000000000000000081526004016118d190613b51565b60405180910390fd5b600260048111156118ee576118ed614009565b5b6006600083815260200190815260200160002060000160009054906101000a900460ff16600481111561192457611923614009565b5b14611964576040517f08c379a000000000000000000000000000000000000000000000000000000000815260040161195b90613911565b60405180910390fd5b60046006600083815260200190815260200160002060000160006101000a81548160ff0219169083600481111561199e5761199d614009565b5b021790555050565b60606119b182612238565b6119f0576040517f08c379a00000000000000000000000000000000000000000000000000000000081526004016119e790613931565b60405180910390fd5b60006119fa6122a4565b905080611a06846122e1565b604051602001611a17929190613807565b604051602081830303815290604052915050919050565b6000600560008473ffffffffffffffffffffffffffffffffffffffff1673ffffffffffffffffffffffffffffffffffffffff16815260200190815260200160002060008373ffffffffffffffffffffffffffffffffffffffff1673ffffffffffffffffffffffffffffffffffffffff16815260200190815260200160002060009054906101000a900460ff16905092915050565b60007f01ffc9a7000000000000000000000000000000000000000000000000000000007bffffffffffffffffffffffffffffffffffffffffffffffffffffffff1916827bffffffffffffffffffffffffffffffffffffffffffffffffffffffff1916149050919050565b611b3581612238565b611b74576040517f08c379a0000000000000000000000000000000000000000000000000000000008152600401611b6b90613b11565b60405180910390fd5b50565b600033905090565b816004600083815260200190815260200160002060006101000a81548173ffffffffffffffffffffffffffffffffffffffff021916908373ffffffffffffffffffffffffffffffffffffffff160217905550808273ffffffffffffffffffffffffffffffffffffffff16611bf28361152e565b73ffffffffffffffffffffffffffffffffffffffff167f8c5be1e5ebec7d5bd14f71427d1e84f3dd0314c0f7b2291e5b200ac8c7c3b92560405160405180910390a45050565b611c43848484611d29565b611c4f84848484612442565b611c8e576040517f08c379a0000000000000000000000000000000000000000000000000000000008152600401611c8590613951565b60405180910390fd5b50505050565b600080611ca08361152e565b90508073ffffffffffffffffffffffffffffffffffffffff168473ffffffffffffffffffffffffffffffffffffffff161480611ce25750611ce18185611a2e565b5b80611d2057508373ffffffffffffffffffffffffffffffffffffffff16611d08846105ce565b73ffffffffffffffffffffffffffffffffffffffff16145b91505092915050565b8273ffffffffffffffffffffffffffffffffffffffff16611d498261152e565b73ffffffffffffffffffffffffffffffffffffffff1614611d9f576040517f08c379a0000000000000000000000000000000000000000000000000000000008152600401611d9690613971565b60405180910390fd5b600073ffffffffffffffffffffffffffffffffffffffff168273ffffffffffffffffffffffffffffffffffffffff161415611e0f576040517f08c379a0000000000000000000000000000000000000000000000000000000008152600401611e06906139d1565b60405180910390fd5b611e1a8383836125d9565b611e25600082611b7f565b6001600360008573ffffffffffffffffffffffffffffffffffffffff1673ffffffffffffffffffffffffffffffffffffffff1681526020019081526020016000206000828254611e759190613dbf565b925050819055506001600360008473ffffffffffffffffffffffffffffffffffffffff1673ffffffffffffffffffffffffffffffffffffffff1681526020019081526020016000206000828254611ecc9190613d38565b92505081905550816002600083815260200190815260200160002060006101000a81548173ffffffffffffffffffffffffffffffffffffffff021916908373ffffffffffffffffffffffffffffffffffffffff160217905550808273ffffffffffffffffffffffffffffffffffffffff168473ffffffffffffffffffffffffffffffffffffffff167fddf252ad1be2c89b69c2b068fc378daa952ba7f163c4a11628f55a4df523b3ef60405160405180910390a4611f8b838383612990565b505050565b6000611f9b8261152e565b9050611fa9816000846125d9565b611fb4600083611b7f565b6001600360008373ffffffffffffffffffffffffffffffffffffffff1673ffffffffffffffffffffffffffffffffffffffff16815260200190815260200160002060008282546120049190613dbf565b925050819055506002600083815260200190815260200160002060006101000a81549073ffffffffffffffffffffffffffffffffffffffff021916905581600073ffffffffffffffffffffffffffffffffffffffff168273ffffffffffffffffffffffffffffffffffffffff167fddf252ad1be2c89b69c2b068fc378daa952ba7f163c4a11628f55a4df523b3ef60405160405180910390a46120a981600084612990565b5050565b6120c7828260405180602001604052806000815250612995565b5050565b8173ffffffffffffffffffffffffffffffffffffffff168373ffffffffffffffffffffffffffffffffffffffff16141561213a576040517f08c379a0000000000000000000000000000000000000000000000000000000008152600401612131906139f1565b60405180910390fd5b80600560008573ffffffffffffffffffffffffffffffffffffffff1673ffffffffffffffffffffffffffffffffffffffff16815260200190815260200160002060008473ffffffffffffffffffffffffffffffffffffffff1673ffffffffffffffffffffffffffffffffffffffff16815260200190815260200160002060006101000a81548160ff0219169083151502179055508173ffffffffffffffffffffffffffffffffffffffff168373ffffffffffffffffffffffffffffffffffffffff167f17307eab39ab6107e8899845ad3d59bd9653f200f220920489ca2b5937696c318360405161222b91906138b4565b60405180910390a3505050565b60008073ffffffffffffffffffffffffffffffffffffffff166002600084815260200190815260200160002060009054906101000a900473ffffffffffffffffffffffffffffffffffffffff1673ffffffffffffffffffffffffffffffffffffffff1614159050919050565b60606040518060400160405280601581526020017f68747470733a2f2f697066732e696f2f697066732f0000000000000000000000815250905090565b60606000821415612329576040518060400160405280600181526020017f3000000000000000000000000000000000000000000000000000000000000000815250905061243d565b600082905060005b6000821461235b57808061234490613f31565b915050600a826123549190613d8e565b9150612331565b60008167ffffffffffffffff81111561237757612376614096565b5b6040519080825280601f01601f1916602001820160405280156123a95781602001600182028036833780820191505090505b5090505b60008514612436576001826123c29190613dbf565b9150600a856123d19190613f7a565b60306123dd9190613d38565b60f81b8183815181106123f3576123f2614067565b5b60200101907effffffffffffffffffffffffffffffffffffffffffffffffffffffffffffff1916908160001a905350600a8561242f9190613d8e565b94506123ad565b8093505050505b919050565b60006124638473ffffffffffffffffffffffffffffffffffffffff166129f0565b156125cc578373ffffffffffffffffffffffffffffffffffffffff1663150b7a0261248c611b77565b8786866040518563ffffffff1660e01b81526004016124ae9493929190613846565b602060405180830381600087803b1580156124c857600080fd5b505af19250505080156124f957506040513d601f19601f820116820180604052508101906124f6919061326f565b60015b61257c573d8060008114612529576040519150601f19603f3d011682016040523d82523d6000602084013e61252e565b606091505b50600081511415612574576040517f08c379a000000000000000000000000000000000000000000000000000000000815260040161256b90613951565b60405180910390fd5b805181602001fd5b63150b7a0260e01b7bffffffffffffffffffffffffffffffffffffffffffffffffffffffff1916817bffffffffffffffffffffffffffffffffffffffffffffffffffffffff1916149150506125d1565b600190505b949350505050565b600073ffffffffffffffffffffffffffffffffffffffff168273ffffffffffffffffffffffffffffffffffffffff161480156126625750600860009054906101000a900473ffffffffffffffffffffffffffffffffffffffff1673ffffffffffffffffffffffffffffffffffffffff168373ffffffffffffffffffffffffffffffffffffffff16145b806127595750600073ffffffffffffffffffffffffffffffffffffffff168273ffffffffffffffffffffffffffffffffffffffff1614801561270557506006600082815260200190815260200160002060000160019054906101000a900473ffffffffffffffffffffffffffffffffffffffff1673ffffffffffffffffffffffffffffffffffffffff168373ffffffffffffffffffffffffffffffffffffffff16145b80156127585750600360048111156127205761271f614009565b5b6006600083815260200190815260200160002060000160009054906101000a900460ff16600481111561275657612755614009565b5b145b5b8061283c5750600073ffffffffffffffffffffffffffffffffffffffff168373ffffffffffffffffffffffffffffffffffffffff161480156127e85750600860009054906101000a900473ffffffffffffffffffffffffffffffffffffffff1673ffffffffffffffffffffffffffffffffffffffff168273ffffffffffffffffffffffffffffffffffffffff16145b801561283b57506001600481111561280357612802614009565b5b6006600083815260200190815260200160002060000160009054906101000a900460ff16600481111561283957612838614009565b5b145b5b806129415750600860009054906101000a900473ffffffffffffffffffffffffffffffffffffffff1673ffffffffffffffffffffffffffffffffffffffff168273ffffffffffffffffffffffffffffffffffffffff16141580156128ed5750600860009054906101000a900473ffffffffffffffffffffffffffffffffffffffff1673ffffffffffffffffffffffffffffffffffffffff168373ffffffffffffffffffffffffffffffffffffffff16145b801561294057506003600481111561290857612907614009565b5b6006600083815260200190815260200160002060000160009054906101000a900460ff16600481111561293e5761293d614009565b5b145b5b612980576040517f08c379a0000000000000000000000000000000000000000000000000000000008152600401612977906138f1565b60405180910390fd5b61298b838383612a13565b505050565b505050565b61299f8383612a18565b6129ac6000848484612442565b6129eb576040517f08c379a00000000000000000000000000000000000000000000000000000000081526004016129e290613951565b60405180910390fd5b505050565b6000808273ffffffffffffffffffffffffffffffffffffffff163b119050919050565b505050565b600073ffffffffffffffffffffffffffffffffffffffff168273ffffffffffffffffffffffffffffffffffffffff161415612a88576040517f08c379a0000000000000000000000000000000000000000000000000000000008152600401612a7f90613ab1565b60405180910390fd5b612a9181612238565b15612ad1576040517f08c379a0000000000000000000000000000000000000000000000000000000008152600401612ac890613991565b60405180910390fd5b612add600083836125d9565b6001600360008473ffffffffffffffffffffffffffffffffffffffff1673ffffffffffffffffffffffffffffffffffffffff1681526020019081526020016000206000828254612b2d9190613d38565b92505081905550816002600083815260200190815260200160002060006101000a81548173ffffffffffffffffffffffffffffffffffffffff021916908373ffffffffffffffffffffffffffffffffffffffff160217905550808273ffffffffffffffffffffffffffffffffffffffff16600073ffffffffffffffffffffffffffffffffffffffff167fddf252ad1be2c89b69c2b068fc378daa952ba7f163c4a11628f55a4df523b3ef60405160405180910390a4612bee60008383612990565b5050565b6040518060a0016040528060006004811115612c1157612c10614009565b5b8152602001600073ffffffffffffffffffffffffffffffffffffffff1681526020016060815260200160608152602001600081525090565b828054612c5590613ece565b90600052602060002090601f016020900481019282612c775760008555612cbe565b82601f10612c9057805160ff1916838001178555612cbe565b82800160010185558215612cbe579182015b82811115612cbd578251825591602001919060010190612ca2565b5b509050612ccb9190612ccf565b5090565b5b80821115612ce8576000816000905550600101612cd0565b5090565b6000612cff612cfa84613bf1565b613bcc565b90508083825260208201905082856020860282011115612d2257612d216140ca565b5b60005b85811015612d7057813567ffffffffffffffff811115612d4857612d476140c5565b5b808601612d558982612f4c565b85526020850194506020840193505050600181019050612d25565b5050509392505050565b6000612d8d612d8884613c1d565b613bcc565b90508083825260208201905082856020860282011115612db057612daf6140ca565b5b60005b85811015612de05781612dc68882612f7a565b845260208401935060208301925050600181019050612db3565b5050509392505050565b6000612dfd612df884613c49565b613bcc565b905082815260208101848484011115612e1957612e186140cf565b5b612e24848285613e8c565b509392505050565b6000612e3f612e3a84613c7a565b613bcc565b905082815260208101848484011115612e5b57612e5a6140cf565b5b612e66848285613e8c565b509392505050565b600081359050612e7d816145b9565b92915050565b600082601f830112612e9857612e976140c5565b5b8135612ea8848260208601612cec565b91505092915050565b600082601f830112612ec657612ec56140c5565b5b8135612ed6848260208601612d7a565b91505092915050565b600081359050612eee816145d0565b92915050565b600081359050612f03816145e7565b92915050565b600081519050612f18816145e7565b92915050565b600082601f830112612f3357612f326140c5565b5b8135612f43848260208601612dea565b91505092915050565b600082601f830112612f6157612f606140c5565b5b8135612f71848260208601612e2c565b91505092915050565b600081359050612f89816145fe565b92915050565b600060208284031215612fa557612fa46140d9565b5b6000612fb384828501612e6e565b91505092915050565b60008060408385031215612fd357612fd26140d9565b5b6000612fe185828601612e6e565b9250506020612ff285828601612e6e565b9150509250929050565b600080600060608486031215613015576130146140d9565b5b600061302386828701612e6e565b935050602061303486828701612e6e565b925050604061304586828701612f7a565b9150509250925092565b60008060008060808587031215613069576130686140d9565b5b600061307787828801612e6e565b945050602061308887828801612e6e565b935050604061309987828801612f7a565b925050606085013567ffffffffffffffff8111156130ba576130b96140d4565b5b6130c687828801612f1e565b91505092959194509250565b600080604083850312156130e9576130e86140d9565b5b60006130f785828601612e6e565b925050602061310885828601612edf565b9150509250929050565b60008060408385031215613129576131286140d9565b5b600061313785828601612e6e565b925050602061314885828601612f7a565b9150509250929050565b60008060006060848603121561316b5761316a6140d9565b5b600084013567ffffffffffffffff811115613189576131886140d4565b5b61319586828701612e83565b935050602084013567ffffffffffffffff8111156131b6576131b56140d4565b5b6131c286828701612e83565b925050604084013567ffffffffffffffff8111156131e3576131e26140d4565b5b6131ef86828701612eb1565b9150509250925092565b60006020828403121561320f5761320e6140d9565b5b600082013567ffffffffffffffff81111561322d5761322c6140d4565b5b61323984828501612eb1565b91505092915050565b600060208284031215613258576132576140d9565b5b600061326684828501612ef4565b91505092915050565b600060208284031215613285576132846140d9565b5b600061329384828501612f09565b91505092915050565b6000602082840312156132b2576132b16140d9565b5b60006132c084828501612f7a565b91505092915050565b60006132d5838361376c565b905092915050565b6132e681613df3565b82525050565b6132f581613df3565b82525050565b600061330682613cbb565b6133108185613ce9565b93508360208202850161332285613cab565b8060005b8581101561335e578484038952815161333f85826132c9565b945061334a83613cdc565b925060208a01995050600181019050613326565b50829750879550505050505092915050565b61337981613e05565b82525050565b600061338a82613cc6565b6133948185613cfa565b93506133a4818560208601613e9b565b6133ad816140de565b840191505092915050565b6133c181613e7a565b82525050565b60006133d282613cd1565b6133dc8185613d0b565b93506133ec818560208601613e9b565b6133f5816140de565b840191505092915050565b600061340b82613cd1565b6134158185613d1c565b9350613425818560208601613e9b565b61342e816140de565b840191505092915050565b600061344482613cd1565b61344e8185613d2d565b935061345e818560208601613e9b565b80840191505092915050565b6000613477601083613d1c565b9150613482826140ef565b602082019050919050565b600061349a601983613d1c565b91506134a582614118565b602082019050919050565b60006134bd601f83613d1c565b91506134c882614141565b602082019050919050565b60006134e0603283613d1c565b91506134eb8261416a565b604082019050919050565b6000613503602583613d1c565b915061350e826141b9565b604082019050919050565b6000613526601c83613d1c565b915061353182614208565b602082019050919050565b6000613549600c83613d1c565b915061355482614231565b602082019050919050565b600061356c602483613d1c565b91506135778261425a565b604082019050919050565b600061358f601983613d1c565b915061359a826142a9565b602082019050919050565b60006135b2601c83613d1c565b91506135bd826142d2565b602082019050919050565b60006135d5601f83613d1c565b91506135e0826142fb565b602082019050919050565b60006135f8602983613d1c565b915061360382614324565b604082019050919050565b600061361b601e83613d1c565b915061362682614373565b602082019050919050565b600061363e603e83613d1c565b91506136498261439c565b604082019050919050565b6000613661602083613d1c565b915061366c826143eb565b602082019050919050565b6000613684601f83613d1c565b915061368f82614414565b602082019050919050565b60006136a7601f83613d1c565b91506136b28261443d565b602082019050919050565b60006136ca601883613d1c565b91506136d582614466565b602082019050919050565b60006136ed602183613d1c565b91506136f88261448f565b604082019050919050565b6000613710601f83613d1c565b915061371b826144de565b602082019050919050565b6000613733602a83613d1c565b915061373e82614507565b604082019050919050565b6000613756602e83613d1c565b915061376182614556565b604082019050919050565b600060a08301600083015161378460008601826133b8565b50602083015161379760208601826132dd565b50604083015184820360408601526137af82826133c7565b915050606083015184820360608601526137c982826133c7565b91505060808301516137de60808601826137e9565b508091505092915050565b6137f281613e70565b82525050565b61380181613e70565b82525050565b60006138138285613439565b915061381f8284613439565b91508190509392505050565b600060208201905061384060008301846132ec565b92915050565b600060808201905061385b60008301876132ec565b61386860208301866132ec565b61387560408301856137f8565b8181036060830152613887818461337f565b905095945050505050565b600060208201905081810360008301526138ac81846132fb565b905092915050565b60006020820190506138c96000830184613370565b92915050565b600060208201905081810360008301526138e98184613400565b905092915050565b6000602082019050818103600083015261390a8161346a565b9050919050565b6000602082019050818103600083015261392a8161348d565b9050919050565b6000602082019050818103600083015261394a816134b0565b9050919050565b6000602082019050818103600083015261396a816134d3565b9050919050565b6000602082019050818103600083015261398a816134f6565b9050919050565b600060208201905081810360008301526139aa81613519565b9050919050565b600060208201905081810360008301526139ca8161353c565b9050919050565b600060208201905081810360008301526139ea8161355f565b9050919050565b60006020820190508181036000830152613a0a81613582565b9050919050565b60006020820190508181036000830152613a2a816135a5565b9050919050565b60006020820190508181036000830152613a4a816135c8565b9050919050565b60006020820190508181036000830152613a6a816135eb565b9050919050565b60006020820190508181036000830152613a8a8161360e565b9050919050565b60006020820190508181036000830152613aaa81613631565b9050919050565b60006020820190508181036000830152613aca81613654565b9050919050565b60006020820190508181036000830152613aea81613677565b9050919050565b60006020820190508181036000830152613b0a8161369a565b9050919050565b60006020820190508181036000830152613b2a816136bd565b9050919050565b60006020820190508181036000830152613b4a816136e0565b9050919050565b60006020820190508181036000830152613b6a81613703565b9050919050565b60006020820190508181036000830152613b8a81613726565b9050919050565b60006020820190508181036000830152613baa81613749565b9050919050565b6000602082019050613bc660008301846137f8565b92915050565b6000613bd6613be7565b9050613be28282613f00565b919050565b6000604051905090565b600067ffffffffffffffff821115613c0c57613c0b614096565b5b602082029050602081019050919050565b600067ffffffffffffffff821115613c3857613c37614096565b5b602082029050602081019050919050565b600067ffffffffffffffff821115613c6457613c63614096565b5b613c6d826140de565b9050602081019050919050565b600067ffffffffffffffff821115613c9557613c94614096565b5b613c9e826140de565b9050602081019050919050565b6000819050602082019050919050565b600081519050919050565b600081519050919050565b600081519050919050565b6000602082019050919050565b600082825260208201905092915050565b600082825260208201905092915050565b600082825260208201905092915050565b600082825260208201905092915050565b600081905092915050565b6000613d4382613e70565b9150613d4e83613e70565b9250827fffffffffffffffffffffffffffffffffffffffffffffffffffffffffffffffff03821115613d8357613d82613fab565b5b828201905092915050565b6000613d9982613e70565b9150613da483613e70565b925082613db457613db3613fda565b5b828204905092915050565b6000613dca82613e70565b9150613dd583613e70565b925082821015613de857613de7613fab565b5b828203905092915050565b6000613dfe82613e50565b9050919050565b60008115159050919050565b60007fffffffff0000000000000000000000000000000000000000000000000000000082169050919050565b6000819050613e4b826145a5565b919050565b600073ffffffffffffffffffffffffffffffffffffffff82169050919050565b6000819050919050565b6000613e8582613e3d565b9050919050565b82818337600083830152505050565b60005b83811015613eb9578082015181840152602081019050613e9e565b83811115613ec8576000848401525b50505050565b60006002820490506001821680613ee657607f821691505b60208210811415613efa57613ef9614038565b5b50919050565b613f09826140de565b810181811067ffffffffffffffff82111715613f2857613f27614096565b5b80604052505050565b6000613f3c82613e70565b91507fffffffffffffffffffffffffffffffffffffffffffffffffffffffffffffffff821415613f6f57613f6e613fab565b5b600182019050919050565b6000613f8582613e70565b9150613f9083613e70565b925082613fa057613f9f613fda565b5b828206905092915050565b7f4e487b7100000000000000000000000000000000000000000000000000000000600052601160045260246000fd5b7f4e487b7100000000000000000000000000000000000000000000000000000000600052601260045260246000fd5b7f4e487b7100000000000000000000000000000000000000000000000000000000600052602160045260246000fd5b7f4e487b7100000000000000000000000000000000000000000000000000000000600052602260045260246000fd5b7f4e487b7100000000000000000000000000000000000000000000000000000000600052603260045260246000fd5b7f4e487b7100000000000000000000000000000000000000000000000000000000600052604160045260246000fd5b600080fd5b600080fd5b600080fd5b600080fd5b600080fd5b6000601f19601f8301169050919050565b7f496e76616c6964207472616e7366657200000000000000000000000000000000600082015250565b7f426164676520697320696e20696e76616c696420737461746500000000000000600082015250565b7f55524920717565727920666f72206e6f6e6578697374656e7420746f6b656e00600082015250565b7f4552433732313a207472616e7366657220746f206e6f6e20455243373231526560008201527f63656976657220696d706c656d656e7465720000000000000000000000000000602082015250565b7f4552433732313a207472616e736665722066726f6d20696e636f72726563742060008201527f6f776e6572000000000000000000000000000000000000000000000000000000602082015250565b7f4552433732313a20746f6b656e20616c7265616479206d696e74656400000000600082015250565b7f496e7661696420696e7075740000000000000000000000000000000000000000600082015250565b7f4552433732313a207472616e7366657220746f20746865207a65726f2061646460008201527f7265737300000000000000000000000000000000000000000000000000000000602082015250565b7f4552433732313a20617070726f766520746f2063616c6c657200000000000000600082015250565b7f4f6e6c79206f7267616e697a65722063616e2061646420626164676500000000600082015250565b7f43616e6e6f7420617761726420626164676520746f206f7267616e697a657200600082015250565b7f4552433732313a2061646472657373207a65726f206973206e6f74206120766160008201527f6c6964206f776e65720000000000000000000000000000000000000000000000602082015250565b7f4f6e6c79206f7267616e697a65722063616e2061776172642062616467650000600082015250565b7f4552433732313a20617070726f76652063616c6c6572206973206e6f7420746f60008201527f6b656e206f776e6572206e6f7220617070726f76656420666f7220616c6c0000602082015250565b7f4552433732313a206d696e7420746f20746865207a65726f2061646472657373600082015250565b7f4f6e6c79206f7267616e697a65722063616e2072656d6f766520626164676500600082015250565b7f4f6e6c7920726563697069656e742063616e2061636365707420626164676500600082015250565b7f4552433732313a20696e76616c696420746f6b656e2049440000000000000000600082015250565b7f4552433732313a20617070726f76616c20746f2063757272656e74206f776e6560008201527f7200000000000000000000000000000000000000000000000000000000000000602082015250565b7f4f6e6c7920726563697069656e742063616e2072656a65637420626164676500600082015250565b7f4f6e6c79206f7267616e697a6572206f7220726563657069656e742063616e2060008201527f6275726e20626164676500000000000000000000000000000000000000000000602082015250565b7f4552433732313a2063616c6c6572206973206e6f7420746f6b656e206f776e6560008201527f72206e6f7220617070726f766564000000000000000000000000000000000000602082015250565b600581106145b6576145b5614009565b5b50565b6145c281613df3565b81146145cd57600080fd5b50565b6145d981613e05565b81146145e457600080fd5b50565b6145f081613e11565b81146145fb57600080fd5b50565b61460781613e70565b811461461257600080fd5b5056fea26469706673582212205646be320bf3fe3e2f4010510ba569c46d536f3c091f57b60d95c6dab594193064736f6c63430008070033",
  "linkReferences": {},
  "deployedLinkReferences": {}
}